{"abi":[{"inputs":[{"internalType":"address","name":"sender","type":"address"}],"stateMutability":"nonpayable","type":"constructor"},{"anonymous":false,"inputs":[{"indexed":false,"internalType":"uint256","name":"id","type":"uint256"},{"indexed":false,"internalType":"bool","name":"completed","type":"bool"}],"name":"TaskCompleted","type":"event"},{"anonymous":false,"inputs":[{"indexed":false,"internalType":"string","name":"name","type":"string"},{"indexed":false,"internalType":"string","name":"description","type":"string"},{"indexed":false,"internalType":"bool","name":"created","type":"bool"}],"name":"TaskCreated","type":"event"},{"anonymous":false,"inputs":[{"indexed":false,"internalType":"uint256","name":"id","type":"uint256"},{"indexed":false,"internalType":"bool","name":"deleted","type":"bool"}],"name":"TaskDeleted","type":"event"},{"inputs":[{"internalType":"uint256","name":"id","type":"uint256"}],"name":"CompleteTask","outputs":[],"stateMutability":"nonpayable","type":"function"},{"inputs":[{"internalType":"string","name":"name","type":"string"}],"name":"CreateList","outputs":[],"stateMutability":"nonpayable","type":"function"},{"inputs":[{"internalType":"string","name":"name","type":"string"},{"internalType":"string","name":"description","type":"string"},{"internalType":"string","name":"day","type":"string"},{"internalType":"uint256","name":"ListId","type":"uint256"}],"name":"CreateTask","outputs":[],"stateMutability":"nonpayable","type":"function"},{"inputs":[{"internalType":"uint256","name":"id","type":"uint256"}],"name":"DeletList","outputs":[],"stateMutability":"nonpayable","type":"function"},{"inputs":[{"internalType":"uint256","name":"id","type":"uint256"}],"name":"DeleteTask","outputs":[],"stateMutability":"nonpayable","type":"function"},{"inputs":[],"name":"creator","outputs":[{"internalType":"address","name":"","type":"address"}],"stateMutability":"view","type":"function"},{"inputs":[{"internalType":"uint256","name":"","type":"uint256"}],"name":"lists","outputs":[{"internalType":"bool","name":"active","type":"bool"},{"internalType":"string","name":"name","type":"string"}],"stateMutability":"view","type":"function"},{"inputs":[{"internalType":"uint256","name":"","type":"uint256"}],"name":"tasks","outputs":[{"internalType":"string","name":"name","type":"string"},{"internalType":"uint256","name":"listId","type":"uint256"},{"internalType":"string","name":"description","type":"string"},{"internalType":"string","name":"day","type":"string"},{"internalType":"bool","name":"active","type":"bool"},{"internalType":"bool","name":"completed","type":"bool"}],"stateMutability":"view","type":"function"}],"devdoc":{"kind":"dev","methods":{},"version":1},"evm":{"assembly":"    /* \"todo\":362:2174  contract ToDo {... */\n  mstore(0x40, 0x80)\n    /* \"todo\":1133:1198  constructor(address sender)... */\n  callvalue\n  dup1\n  iszero\n  tag_1\n  jumpi\n  0x00\n  dup1\n  revert\ntag_1:\n  pop\n  mload(0x40)\n  sub(codesize, bytecodeSize)\n  dup1\n  bytecodeSize\n  dup4\n  codecopy\n  dup2\n  dup2\n  add\n  0x40\n  mstore\n  dup2\n  add\n  swap1\n  tag_2\n  swap2\n  swap1\n  tag_3\n  jump\t// in\ntag_2:\n    /* \"todo\":1185:1191  sender */\n  dup1\n    /* \"todo\":1175:1182  creator */\n  0x00\n  dup1\n    /* \"todo\":1175:1191  creator = sender */\n  0x0100\n  exp\n  dup2\n  sload\n  dup2\n  0xffffffffffffffffffffffffffffffffffffffff\n  mul\n  not\n  and\n  swap1\n  dup4\n  0xffffffffffffffffffffffffffffffffffffffff\n  and\n  mul\n  or\n  swap1\n  sstore\n  pop\n    /* \"todo\":1133:1198  constructor(address sender)... */\n  pop\n    /* \"todo\":362:2174  contract ToDo {... */\n  jump(tag_6)\n    /* \"#utility.yul\":88:205   */\ntag_8:\n    /* \"#utility.yul\":197:198   */\n  0x00\n    /* \"#utility.yul\":194:195   */\n  dup1\n    /* \"#utility.yul\":187:199   */\n  revert\n    /* \"#utility.yul\":334:460   */\ntag_10:\n    /* \"#utility.yul\":371:378   */\n  0x00\n    /* \"#utility.yul\":411:453   */\n  0xffffffffffffffffffffffffffffffffffffffff\n    /* \"#utility.yul\":404:409   */\n  dup3\n    /* \"#utility.yul\":400:454   */\n  and\n    /* \"#utility.yul\":389:454   */\n  swap1\n  pop\n    /* \"#utility.yul\":334:460   */\n  swap2\n  swap1\n  pop\n  jump\t// out\n    /* \"#utility.yul\":466:562   */\ntag_11:\n    /* \"#utility.yul\":503:510   */\n  0x00\n    /* \"#utility.yul\":532:556   */\n  tag_20\n    /* \"#utility.yul\":550:555   */\n  dup3\n    /* \"#utility.yul\":532:556   */\n  tag_10\n  jump\t// in\ntag_20:\n    /* \"#utility.yul\":521:556   */\n  swap1\n  pop\n    /* \"#utility.yul\":466:562   */\n  swap2\n  swap1\n  pop\n  jump\t// out\n    /* \"#utility.yul\":568:690   */\ntag_12:\n    /* \"#utility.yul\":641:665   */\n  tag_22\n    /* \"#utility.yul\":659:664   */\n  dup2\n    /* \"#utility.yul\":641:665   */\n  tag_11\n  jump\t// in\ntag_22:\n    /* \"#utility.yul\":634:639   */\n  dup2\n    /* \"#utility.yul\":631:666   */\n  eq\n    /* \"#utility.yul\":621:684   */\n  tag_23\n  jumpi\n    /* \"#utility.yul\":680:681   */\n  0x00\n    /* \"#utility.yul\":677:678   */\n  dup1\n    /* \"#utility.yul\":670:682   */\n  revert\n    /* \"#utility.yul\":621:684   */\ntag_23:\n    /* \"#utility.yul\":568:690   */\n  pop\n  jump\t// out\n    /* \"#utility.yul\":696:839   */\ntag_13:\n    /* \"#utility.yul\":753:758   */\n  0x00\n    /* \"#utility.yul\":784:790   */\n  dup2\n    /* \"#utility.yul\":778:791   */\n  mload\n    /* \"#utility.yul\":769:791   */\n  swap1\n  pop\n    /* \"#utility.yul\":800:833   */\n  tag_25\n    /* \"#utility.yul\":827:832   */\n  dup2\n    /* \"#utility.yul\":800:833   */\n  tag_12\n  jump\t// in\ntag_25:\n    /* \"#utility.yul\":696:839   */\n  swap3\n  swap2\n  pop\n  pop\n  jump\t// out\n    /* \"#utility.yul\":845:1196   */\ntag_3:\n    /* \"#utility.yul\":915:921   */\n  0x00\n    /* \"#utility.yul\":964:966   */\n  0x20\n    /* \"#utility.yul\":952:961   */\n  dup3\n    /* \"#utility.yul\":943:950   */\n  dup5\n    /* \"#utility.yul\":939:962   */\n  sub\n    /* \"#utility.yul\":935:967   */\n  slt\n    /* \"#utility.yul\":932:1051   */\n  iszero\n  tag_27\n  jumpi\n    /* \"#utility.yul\":970:1049   */\n  tag_28\n  tag_8\n  jump\t// in\ntag_28:\n    /* \"#utility.yul\":932:1051   */\ntag_27:\n    /* \"#utility.yul\":1090:1091   */\n  0x00\n    /* \"#utility.yul\":1115:1179   */\n  tag_29\n    /* \"#utility.yul\":1171:1178   */\n  dup5\n    /* \"#utility.yul\":1162:1168   */\n  dup3\n    /* \"#utility.yul\":1151:1160   */\n  dup6\n    /* \"#utility.yul\":1147:1169   */\n  add\n    /* \"#utility.yul\":1115:1179   */\n  tag_13\n  jump\t// in\ntag_29:\n    /* \"#utility.yul\":1105:1179   */\n  swap2\n  pop\n    /* \"#utility.yul\":1061:1189   */\n  pop\n    /* \"#utility.yul\":845:1196   */\n  swap3\n  swap2\n  pop\n  pop\n  jump\t// out\n    /* \"todo\":362:2174  contract ToDo {... */\ntag_6:\n  dataSize(sub_0)\n  dup1\n  dataOffset(sub_0)\n  0x00\n  codecopy\n  0x00\n  return\nstop\n\nsub_0: assembly {\n        /* \"todo\":362:2174  contract ToDo {... */\n      mstore(0x40, 0x80)\n      callvalue\n      dup1\n      iszero\n      tag_1\n      jumpi\n      0x00\n      dup1\n      revert\n    tag_1:\n      pop\n      jumpi(tag_2, lt(calldatasize, 0x04))\n      shr(0xe0, calldataload(0x00))\n      dup1\n      0x96102cf4\n      gt\n      tag_11\n      jumpi\n      dup1\n      0x96102cf4\n      eq\n      tag_7\n      jumpi\n      dup1\n      0xa54c7bdc\n      eq\n      tag_8\n      jumpi\n      dup1\n      0xae75aa69\n      eq\n      tag_9\n      jumpi\n      dup1\n      0xfcc4a510\n      eq\n      tag_10\n      jumpi\n      jump(tag_2)\n    tag_11:\n      dup1\n      0x02d05d3f\n      eq\n      tag_3\n      jumpi\n      dup1\n      0x6ae17a3c\n      eq\n      tag_4\n      jumpi\n      dup1\n      0x8c2dccd1\n      eq\n      tag_5\n      jumpi\n      dup1\n      0x8d977672\n      eq\n      tag_6\n      jumpi\n    tag_2:\n      0x00\n      dup1\n      revert\n        /* \"todo\":856:878  address public creator */\n    tag_3:\n      tag_12\n      tag_13\n      jump\t// in\n    tag_12:\n      mload(0x40)\n      tag_14\n      swap2\n      swap1\n      tag_15\n      jump\t// in\n    tag_14:\n      mload(0x40)\n      dup1\n      swap2\n      sub\n      swap1\n      return\n        /* \"todo\":1378:1465  function DeletList(uint id) public restricted {... */\n    tag_4:\n      tag_16\n      0x04\n      dup1\n      calldatasize\n      sub\n      dup2\n      add\n      swap1\n      tag_17\n      swap2\n      swap1\n      tag_18\n      jump\t// in\n    tag_17:\n      tag_19\n      jump\t// in\n    tag_16:\n      stop\n        /* \"todo\":1906:2032  function DeleteTask(uint id) public restricted {... */\n    tag_5:\n      tag_20\n      0x04\n      dup1\n      calldatasize\n      sub\n      dup2\n      add\n      swap1\n      tag_21\n      swap2\n      swap1\n      tag_18\n      jump\t// in\n    tag_21:\n      tag_22\n      jump\t// in\n    tag_20:\n      stop\n        /* \"todo\":924:958  mapping(uint => Task) public tasks */\n    tag_6:\n      tag_23\n      0x04\n      dup1\n      calldatasize\n      sub\n      dup2\n      add\n      swap1\n      tag_24\n      swap2\n      swap1\n      tag_18\n      jump\t// in\n    tag_24:\n      tag_25\n      jump\t// in\n    tag_23:\n      mload(0x40)\n      tag_26\n      swap7\n      swap6\n      swap5\n      swap4\n      swap3\n      swap2\n      swap1\n      tag_27\n      jump\t// in\n    tag_26:\n      mload(0x40)\n      dup1\n      swap2\n      sub\n      swap1\n      return\n        /* \"todo\":884:918  mapping(uint => List) public lists */\n    tag_7:\n      tag_28\n      0x04\n      dup1\n      calldatasize\n      sub\n      dup2\n      add\n      swap1\n      tag_29\n      swap2\n      swap1\n      tag_18\n      jump\t// in\n    tag_29:\n      tag_30\n      jump\t// in\n    tag_28:\n      mload(0x40)\n      tag_31\n      swap3\n      swap2\n      swap1\n      tag_32\n      jump\t// in\n    tag_31:\n      mload(0x40)\n      dup1\n      swap2\n      sub\n      swap1\n      return\n        /* \"todo\":1471:1900  function CreateTask(string memory name, string memory description, string memory day, uint ListId) public restricted {... */\n    tag_8:\n      tag_33\n      0x04\n      dup1\n      calldatasize\n      sub\n      dup2\n      add\n      swap1\n      tag_34\n      swap2\n      swap1\n      tag_35\n      jump\t// in\n    tag_34:\n      tag_36\n      jump\t// in\n    tag_33:\n      stop\n        /* \"todo\":2038:2170  function CompleteTask(uint id) public restricted {... */\n    tag_9:\n      tag_37\n      0x04\n      dup1\n      calldatasize\n      sub\n      dup2\n      add\n      swap1\n      tag_38\n      swap2\n      swap1\n      tag_18\n      jump\t// in\n    tag_38:\n      tag_39\n      jump\t// in\n    tag_37:\n      stop\n        /* \"todo\":1204:1372  function CreateList(string memory name) public {... */\n    tag_10:\n      tag_40\n      0x04\n      dup1\n      calldatasize\n      sub\n      dup2\n      add\n      swap1\n      tag_41\n      swap2\n      swap1\n      tag_42\n      jump\t// in\n    tag_41:\n      tag_43\n      jump\t// in\n    tag_40:\n      stop\n        /* \"todo\":856:878  address public creator */\n    tag_13:\n      0x00\n      dup1\n      sload\n      swap1\n      0x0100\n      exp\n      swap1\n      div\n      0xffffffffffffffffffffffffffffffffffffffff\n      and\n      dup2\n      jump\t// out\n        /* \"todo\":1378:1465  function DeletList(uint id) public restricted {... */\n    tag_19:\n        /* \"todo\":1063:1070  creator */\n      0x00\n      dup1\n      sload\n      swap1\n      0x0100\n      exp\n      swap1\n      div\n      0xffffffffffffffffffffffffffffffffffffffff\n      and\n        /* \"todo\":1049:1070  msg.sender == creator */\n      0xffffffffffffffffffffffffffffffffffffffff\n      and\n        /* \"todo\":1049:1059  msg.sender */\n      caller\n        /* \"todo\":1049:1070  msg.sender == creator */\n      0xffffffffffffffffffffffffffffffffffffffff\n      and\n      eq\n        /* \"todo\":1041:1109  require(msg.sender == creator, \"You did not create this to do list\") */\n      tag_45\n      jumpi\n      mload(0x40)\n      0x08c379a000000000000000000000000000000000000000000000000000000000\n      dup2\n      mstore\n      0x04\n      add\n      tag_46\n      swap1\n      tag_47\n      jump\t// in\n    tag_46:\n      mload(0x40)\n      dup1\n      swap2\n      sub\n      swap1\n      revert\n    tag_45:\n        /* \"todo\":1453:1458  false */\n      0x00\n        /* \"todo\":1434:1439  lists */\n      0x01\n        /* \"todo\":1434:1443  lists[id] */\n      0x00\n        /* \"todo\":1440:1442  id */\n      dup4\n        /* \"todo\":1434:1443  lists[id] */\n      dup2\n      mstore\n      0x20\n      add\n      swap1\n      dup2\n      mstore\n      0x20\n      add\n      0x00\n      keccak256\n        /* \"todo\":1434:1450  lists[id].active */\n      0x00\n      add\n      0x00\n        /* \"todo\":1434:1458  lists[id].active = false */\n      0x0100\n      exp\n      dup2\n      sload\n      dup2\n      0xff\n      mul\n      not\n      and\n      swap1\n      dup4\n      iszero\n      iszero\n      mul\n      or\n      swap1\n      sstore\n      pop\n        /* \"todo\":1378:1465  function DeletList(uint id) public restricted {... */\n      pop\n      jump\t// out\n        /* \"todo\":1906:2032  function DeleteTask(uint id) public restricted {... */\n    tag_22:\n        /* \"todo\":1063:1070  creator */\n      0x00\n      dup1\n      sload\n      swap1\n      0x0100\n      exp\n      swap1\n      div\n      0xffffffffffffffffffffffffffffffffffffffff\n      and\n        /* \"todo\":1049:1070  msg.sender == creator */\n      0xffffffffffffffffffffffffffffffffffffffff\n      and\n        /* \"todo\":1049:1059  msg.sender */\n      caller\n        /* \"todo\":1049:1070  msg.sender == creator */\n      0xffffffffffffffffffffffffffffffffffffffff\n      and\n      eq\n        /* \"todo\":1041:1109  require(msg.sender == creator, \"You did not create this to do list\") */\n      tag_50\n      jumpi\n      mload(0x40)\n      0x08c379a000000000000000000000000000000000000000000000000000000000\n      dup2\n      mstore\n      0x04\n      add\n      tag_51\n      swap1\n      tag_47\n      jump\t// in\n    tag_51:\n      mload(0x40)\n      dup1\n      swap2\n      sub\n      swap1\n      revert\n    tag_50:\n        /* \"todo\":1982:1987  false */\n      0x00\n        /* \"todo\":1963:1968  tasks */\n      0x02\n        /* \"todo\":1963:1972  tasks[id] */\n      0x00\n        /* \"todo\":1969:1971  id */\n      dup4\n        /* \"todo\":1963:1972  tasks[id] */\n      dup2\n      mstore\n      0x20\n      add\n      swap1\n      dup2\n      mstore\n      0x20\n      add\n      0x00\n      keccak256\n        /* \"todo\":1963:1979  tasks[id].active */\n      0x04\n      add\n      0x00\n        /* \"todo\":1963:1987  tasks[id].active = false */\n      0x0100\n      exp\n      dup2\n      sload\n      dup2\n      0xff\n      mul\n      not\n      and\n      swap1\n      dup4\n      iszero\n      iszero\n      mul\n      or\n      swap1\n      sstore\n      pop\n        /* \"todo\":2003:2024  TaskDeleted(id, true) */\n      0x572597a6891de3ffc5ddb25adeb4871a3bf451676410ca50eed9524c49bdc0e6\n        /* \"todo\":2015:2017  id */\n      dup2\n        /* \"todo\":2019:2023  true */\n      0x01\n        /* \"todo\":2003:2024  TaskDeleted(id, true) */\n      mload(0x40)\n      tag_53\n      swap3\n      swap2\n      swap1\n      tag_54\n      jump\t// in\n    tag_53:\n      mload(0x40)\n      dup1\n      swap2\n      sub\n      swap1\n      log1\n        /* \"todo\":1906:2032  function DeleteTask(uint id) public restricted {... */\n      pop\n      jump\t// out\n        /* \"todo\":924:958  mapping(uint => Task) public tasks */\n    tag_25:\n      mstore(0x20, 0x02)\n      dup1\n      0x00\n      mstore\n      keccak256(0x00, 0x40)\n      0x00\n      swap2\n      pop\n      swap1\n      pop\n      dup1\n      0x00\n      add\n      dup1\n      sload\n      tag_55\n      swap1\n      tag_56\n      jump\t// in\n    tag_55:\n      dup1\n      0x1f\n      add\n      0x20\n      dup1\n      swap2\n      div\n      mul\n      0x20\n      add\n      mload(0x40)\n      swap1\n      dup2\n      add\n      0x40\n      mstore\n      dup1\n      swap3\n      swap2\n      swap1\n      dup2\n      dup2\n      mstore\n      0x20\n      add\n      dup3\n      dup1\n      sload\n      tag_57\n      swap1\n      tag_56\n      jump\t// in\n    tag_57:\n      dup1\n      iszero\n      tag_58\n      jumpi\n      dup1\n      0x1f\n      lt\n      tag_59\n      jumpi\n      0x0100\n      dup1\n      dup4\n      sload\n      div\n      mul\n      dup4\n      mstore\n      swap2\n      0x20\n      add\n      swap2\n      jump(tag_58)\n    tag_59:\n      dup3\n      add\n      swap2\n      swap1\n      0x00\n      mstore\n      keccak256(0x00, 0x20)\n      swap1\n    tag_60:\n      dup2\n      sload\n      dup2\n      mstore\n      swap1\n      0x01\n      add\n      swap1\n      0x20\n      add\n      dup1\n      dup4\n      gt\n      tag_60\n      jumpi\n      dup3\n      swap1\n      sub\n      0x1f\n      and\n      dup3\n      add\n      swap2\n    tag_58:\n      pop\n      pop\n      pop\n      pop\n      pop\n      swap1\n      dup1\n      0x01\n      add\n      sload\n      swap1\n      dup1\n      0x02\n      add\n      dup1\n      sload\n      tag_61\n      swap1\n      tag_56\n      jump\t// in\n    tag_61:\n      dup1\n      0x1f\n      add\n      0x20\n      dup1\n      swap2\n      div\n      mul\n      0x20\n      add\n      mload(0x40)\n      swap1\n      dup2\n      add\n      0x40\n      mstore\n      dup1\n      swap3\n      swap2\n      swap1\n      dup2\n      dup2\n      mstore\n      0x20\n      add\n      dup3\n      dup1\n      sload\n      tag_62\n      swap1\n      tag_56\n      jump\t// in\n    tag_62:\n      dup1\n      iszero\n      tag_63\n      jumpi\n      dup1\n      0x1f\n      lt\n      tag_64\n      jumpi\n      0x0100\n      dup1\n      dup4\n      sload\n      div\n      mul\n      dup4\n      mstore\n      swap2\n      0x20\n      add\n      swap2\n      jump(tag_63)\n    tag_64:\n      dup3\n      add\n      swap2\n      swap1\n      0x00\n      mstore\n      keccak256(0x00, 0x20)\n      swap1\n    tag_65:\n      dup2\n      sload\n      dup2\n      mstore\n      swap1\n      0x01\n      add\n      swap1\n      0x20\n      add\n      dup1\n      dup4\n      gt\n      tag_65\n      jumpi\n      dup3\n      swap1\n      sub\n      0x1f\n      and\n      dup3\n      add\n      swap2\n    tag_63:\n      pop\n      pop\n      pop\n      pop\n      pop\n      swap1\n      dup1\n      0x03\n      add\n      dup1\n      sload\n      tag_66\n      swap1\n      tag_56\n      jump\t// in\n    tag_66:\n      dup1\n      0x1f\n      add\n      0x20\n      dup1\n      swap2\n      div\n      mul\n      0x20\n      add\n      mload(0x40)\n      swap1\n      dup2\n      add\n      0x40\n      mstore\n      dup1\n      swap3\n      swap2\n      swap1\n      dup2\n      dup2\n      mstore\n      0x20\n      add\n      dup3\n      dup1\n      sload\n      tag_67\n      swap1\n      tag_56\n      jump\t// in\n    tag_67:\n      dup1\n      iszero\n      tag_68\n      jumpi\n      dup1\n      0x1f\n      lt\n      tag_69\n      jumpi\n      0x0100\n      dup1\n      dup4\n      sload\n      div\n      mul\n      dup4\n      mstore\n      swap2\n      0x20\n      add\n      swap2\n      jump(tag_68)\n    tag_69:\n      dup3\n      add\n      swap2\n      swap1\n      0x00\n      mstore\n      keccak256(0x00, 0x20)\n      swap1\n    tag_70:\n      dup2\n      sload\n      dup2\n      mstore\n      swap1\n      0x01\n      add\n      swap1\n      0x20\n      add\n      dup1\n      dup4\n      gt\n      tag_70\n      jumpi\n      dup3\n      swap1\n      sub\n      0x1f\n      and\n      dup3\n      add\n      swap2\n    tag_68:\n      pop\n      pop\n      pop\n      pop\n      pop\n      swap1\n      dup1\n      0x04\n      add\n      0x00\n      swap1\n      sload\n      swap1\n      0x0100\n      exp\n      swap1\n      div\n      0xff\n      and\n      swap1\n      dup1\n      0x04\n      add\n      0x01\n      swap1\n      sload\n      swap1\n      0x0100\n      exp\n      swap1\n      div\n      0xff\n      and\n      swap1\n      pop\n      dup7\n      jump\t// out\n        /* \"todo\":884:918  mapping(uint => List) public lists */\n    tag_30:\n      mstore(0x20, 0x01)\n      dup1\n      0x00\n      mstore\n      keccak256(0x00, 0x40)\n      0x00\n      swap2\n      pop\n      swap1\n      pop\n      dup1\n      0x00\n      add\n      0x00\n      swap1\n      sload\n      swap1\n      0x0100\n      exp\n      swap1\n      div\n      0xff\n      and\n      swap1\n      dup1\n      0x01\n      add\n      dup1\n      sload\n      tag_71\n      swap1\n      tag_56\n      jump\t// in\n    tag_71:\n      dup1\n      0x1f\n      add\n      0x20\n      dup1\n      swap2\n      div\n      mul\n      0x20\n      add\n      mload(0x40)\n      swap1\n      dup2\n      add\n      0x40\n      mstore\n      dup1\n      swap3\n      swap2\n      swap1\n      dup2\n      dup2\n      mstore\n      0x20\n      add\n      dup3\n      dup1\n      sload\n      tag_72\n      swap1\n      tag_56\n      jump\t// in\n    tag_72:\n      dup1\n      iszero\n      tag_73\n      jumpi\n      dup1\n      0x1f\n      lt\n      tag_74\n      jumpi\n      0x0100\n      dup1\n      dup4\n      sload\n      div\n      mul\n      dup4\n      mstore\n      swap2\n      0x20\n      add\n      swap2\n      jump(tag_73)\n    tag_74:\n      dup3\n      add\n      swap2\n      swap1\n      0x00\n      mstore\n      keccak256(0x00, 0x20)\n      swap1\n    tag_75:\n      dup2\n      sload\n      dup2\n      mstore\n      swap1\n      0x01\n      add\n      swap1\n      0x20\n      add\n      dup1\n      dup4\n      gt\n      tag_75\n      jumpi\n      dup3\n      swap1\n      sub\n      0x1f\n      and\n      dup3\n      add\n      swap2\n    tag_73:\n      pop\n      pop\n      pop\n      pop\n      pop\n      swap1\n      pop\n      dup3\n      jump\t// out\n        /* \"todo\":1471:1900  function CreateTask(string memory name, string memory description, string memory day, uint ListId) public restricted {... */\n    tag_36:\n        /* \"todo\":1063:1070  creator */\n      0x00\n      dup1\n      sload\n      swap1\n      0x0100\n      exp\n      swap1\n      div\n      0xffffffffffffffffffffffffffffffffffffffff\n      and\n        /* \"todo\":1049:1070  msg.sender == creator */\n      0xffffffffffffffffffffffffffffffffffffffff\n      and\n        /* \"todo\":1049:1059  msg.sender */\n      caller\n        /* \"todo\":1049:1070  msg.sender == creator */\n      0xffffffffffffffffffffffffffffffffffffffff\n      and\n      eq\n        /* \"todo\":1041:1109  require(msg.sender == creator, \"You did not create this to do list\") */\n      tag_77\n      jumpi\n      mload(0x40)\n      0x08c379a000000000000000000000000000000000000000000000000000000000\n      dup2\n      mstore\n      0x04\n      add\n      tag_78\n      swap1\n      tag_47\n      jump\t// in\n    tag_78:\n      mload(0x40)\n      dup1\n      swap2\n      sub\n      swap1\n      revert\n    tag_77:\n        /* \"todo\":1599:1619  Task storage newTask */\n      0x00\n        /* \"todo\":1622:1627  tasks */\n      0x02\n        /* \"todo\":1622:1641  tasks[numOfTasks++] */\n      0x00\n        /* \"todo\":1628:1638  numOfTasks */\n      0x04\n      0x00\n        /* \"todo\":1628:1640  numOfTasks++ */\n      dup2\n      sload\n      dup1\n      swap3\n      swap2\n      swap1\n      tag_80\n      swap1\n      tag_81\n      jump\t// in\n    tag_80:\n      swap2\n      swap1\n      pop\n      sstore\n        /* \"todo\":1622:1641  tasks[numOfTasks++] */\n      dup2\n      mstore\n      0x20\n      add\n      swap1\n      dup2\n      mstore\n      0x20\n      add\n      0x00\n      keccak256\n        /* \"todo\":1599:1641  Task storage newTask = tasks[numOfTasks++] */\n      swap1\n      pop\n        /* \"todo\":1666:1670  name */\n      dup5\n        /* \"todo\":1651:1658  newTask */\n      dup2\n        /* \"todo\":1651:1663  newTask.name */\n      0x00\n      add\n        /* \"todo\":1651:1670  newTask.name = name */\n      swap1\n      dup1\n      mload\n      swap1\n      0x20\n      add\n      swap1\n      tag_82\n      swap3\n      swap2\n      swap1\n      tag_83\n      jump\t// in\n    tag_82:\n      pop\n        /* \"todo\":1702:1713  description */\n      dup4\n        /* \"todo\":1680:1687  newTask */\n      dup2\n        /* \"todo\":1680:1699  newTask.description */\n      0x02\n      add\n        /* \"todo\":1680:1713  newTask.description = description */\n      swap1\n      dup1\n      mload\n      swap1\n      0x20\n      add\n      swap1\n      tag_84\n      swap3\n      swap2\n      swap1\n      tag_83\n      jump\t// in\n    tag_84:\n      pop\n        /* \"todo\":1740:1746  ListId */\n      dup2\n        /* \"todo\":1723:1730  newTask */\n      dup2\n        /* \"todo\":1723:1737  newTask.listId */\n      0x01\n      add\n        /* \"todo\":1723:1746  newTask.listId = ListId */\n      dup2\n      swap1\n      sstore\n      pop\n        /* \"todo\":1770:1773  day */\n      dup3\n        /* \"todo\":1756:1763  newTask */\n      dup2\n        /* \"todo\":1756:1767  newTask.day */\n      0x03\n      add\n        /* \"todo\":1756:1773  newTask.day = day */\n      swap1\n      dup1\n      mload\n      swap1\n      0x20\n      add\n      swap1\n      tag_85\n      swap3\n      swap2\n      swap1\n      tag_83\n      jump\t// in\n    tag_85:\n      pop\n        /* \"todo\":1800:1804  true */\n      0x01\n        /* \"todo\":1783:1790  newTask */\n      dup2\n        /* \"todo\":1783:1797  newTask.active */\n      0x04\n      add\n      0x00\n        /* \"todo\":1783:1804  newTask.active = true */\n      0x0100\n      exp\n      dup2\n      sload\n      dup2\n      0xff\n      mul\n      not\n      and\n      swap1\n      dup4\n      iszero\n      iszero\n      mul\n      or\n      swap1\n      sstore\n      pop\n        /* \"todo\":1834:1839  false */\n      0x00\n        /* \"todo\":1814:1821  newTask */\n      dup2\n        /* \"todo\":1814:1831  newTask.completed */\n      0x04\n      add\n      0x01\n        /* \"todo\":1814:1839  newTask.completed = false */\n      0x0100\n      exp\n      dup2\n      sload\n      dup2\n      0xff\n      mul\n      not\n      and\n      swap1\n      dup4\n      iszero\n      iszero\n      mul\n      or\n      swap1\n      sstore\n      pop\n        /* \"todo\":1856:1892  TaskCreated(name, description, true) */\n      0x90a81dfba7e5e8cd7c491e74e4b46b97180ae5cf5e9889b944bd72f8369ba07d\n        /* \"todo\":1868:1872  name */\n      dup6\n        /* \"todo\":1874:1885  description */\n      dup6\n        /* \"todo\":1887:1891  true */\n      0x01\n        /* \"todo\":1856:1892  TaskCreated(name, description, true) */\n      mload(0x40)\n      tag_86\n      swap4\n      swap3\n      swap2\n      swap1\n      tag_87\n      jump\t// in\n    tag_86:\n      mload(0x40)\n      dup1\n      swap2\n      sub\n      swap1\n      log1\n        /* \"todo\":1588:1900  {... */\n      pop\n        /* \"todo\":1471:1900  function CreateTask(string memory name, string memory description, string memory day, uint ListId) public restricted {... */\n      pop\n      pop\n      pop\n      pop\n      jump\t// out\n        /* \"todo\":2038:2170  function CompleteTask(uint id) public restricted {... */\n    tag_39:\n        /* \"todo\":1063:1070  creator */\n      0x00\n      dup1\n      sload\n      swap1\n      0x0100\n      exp\n      swap1\n      div\n      0xffffffffffffffffffffffffffffffffffffffff\n      and\n        /* \"todo\":1049:1070  msg.sender == creator */\n      0xffffffffffffffffffffffffffffffffffffffff\n      and\n        /* \"todo\":1049:1059  msg.sender */\n      caller\n        /* \"todo\":1049:1070  msg.sender == creator */\n      0xffffffffffffffffffffffffffffffffffffffff\n      and\n      eq\n        /* \"todo\":1041:1109  require(msg.sender == creator, \"You did not create this to do list\") */\n      tag_89\n      jumpi\n      mload(0x40)\n      0x08c379a000000000000000000000000000000000000000000000000000000000\n      dup2\n      mstore\n      0x04\n      add\n      tag_90\n      swap1\n      tag_47\n      jump\t// in\n    tag_90:\n      mload(0x40)\n      dup1\n      swap2\n      sub\n      swap1\n      revert\n    tag_89:\n        /* \"todo\":2120:2124  true */\n      0x01\n        /* \"todo\":2098:2103  tasks */\n      0x02\n        /* \"todo\":2098:2107  tasks[id] */\n      0x00\n        /* \"todo\":2104:2106  id */\n      dup4\n        /* \"todo\":2098:2107  tasks[id] */\n      dup2\n      mstore\n      0x20\n      add\n      swap1\n      dup2\n      mstore\n      0x20\n      add\n      0x00\n      keccak256\n        /* \"todo\":2098:2117  tasks[id].completed */\n      0x04\n      add\n      0x01\n        /* \"todo\":2098:2124  tasks[id].completed = true */\n      0x0100\n      exp\n      dup2\n      sload\n      dup2\n      0xff\n      mul\n      not\n      and\n      swap1\n      dup4\n      iszero\n      iszero\n      mul\n      or\n      swap1\n      sstore\n      pop\n        /* \"todo\":2140:2163  TaskCompleted(id, true) */\n      0xe21fa966ca5cd02748c0752352d18c48165e61cb55b4c29cccf924b5a95fcff1\n        /* \"todo\":2154:2156  id */\n      dup2\n        /* \"todo\":2158:2162  true */\n      0x01\n        /* \"todo\":2140:2163  TaskCompleted(id, true) */\n      mload(0x40)\n      tag_92\n      swap3\n      swap2\n      swap1\n      tag_54\n      jump\t// in\n    tag_92:\n      mload(0x40)\n      dup1\n      swap2\n      sub\n      swap1\n      log1\n        /* \"todo\":2038:2170  function CompleteTask(uint id) public restricted {... */\n      pop\n      jump\t// out\n        /* \"todo\":1204:1372  function CreateList(string memory name) public {... */\n    tag_43:\n        /* \"todo\":1262:1282  List storage newList */\n      0x00\n        /* \"todo\":1285:1290  lists */\n      0x01\n        /* \"todo\":1285:1304  lists[numOfLists++] */\n      0x00\n        /* \"todo\":1291:1301  numOfLists */\n      0x03\n      0x00\n        /* \"todo\":1291:1303  numOfLists++ */\n      dup2\n      sload\n      dup1\n      swap3\n      swap2\n      swap1\n      tag_94\n      swap1\n      tag_81\n      jump\t// in\n    tag_94:\n      swap2\n      swap1\n      pop\n      sstore\n        /* \"todo\":1285:1304  lists[numOfLists++] */\n      dup2\n      mstore\n      0x20\n      add\n      swap1\n      dup2\n      mstore\n      0x20\n      add\n      0x00\n      keccak256\n        /* \"todo\":1262:1304  List storage newList = lists[numOfLists++] */\n      swap1\n      pop\n        /* \"todo\":1329:1333  name */\n      dup2\n        /* \"todo\":1314:1321  newList */\n      dup2\n        /* \"todo\":1314:1326  newList.name */\n      0x01\n      add\n        /* \"todo\":1314:1333  newList.name = name */\n      swap1\n      dup1\n      mload\n      swap1\n      0x20\n      add\n      swap1\n      tag_95\n      swap3\n      swap2\n      swap1\n      tag_83\n      jump\t// in\n    tag_95:\n      pop\n        /* \"todo\":1360:1364  true */\n      0x01\n        /* \"todo\":1343:1350  newList */\n      dup2\n        /* \"todo\":1343:1357  newList.active */\n      0x00\n      add\n      0x00\n        /* \"todo\":1343:1364  newList.active = true */\n      0x0100\n      exp\n      dup2\n      sload\n      dup2\n      0xff\n      mul\n      not\n      and\n      swap1\n      dup4\n      iszero\n      iszero\n      mul\n      or\n      swap1\n      sstore\n      pop\n        /* \"todo\":1251:1372  {... */\n      pop\n        /* \"todo\":1204:1372  function CreateList(string memory name) public {... */\n      pop\n      jump\t// out\n    tag_83:\n      dup3\n      dup1\n      sload\n      tag_96\n      swap1\n      tag_56\n      jump\t// in\n    tag_96:\n      swap1\n      0x00\n      mstore\n      keccak256(0x00, 0x20)\n      swap1\n      0x1f\n      add\n      0x20\n      swap1\n      div\n      dup2\n      add\n      swap3\n      dup3\n      tag_98\n      jumpi\n      0x00\n      dup6\n      sstore\n      jump(tag_97)\n    tag_98:\n      dup3\n      0x1f\n      lt\n      tag_99\n      jumpi\n      dup1\n      mload\n      not(0xff)\n      and\n      dup4\n      dup1\n      add\n      or\n      dup6\n      sstore\n      jump(tag_97)\n    tag_99:\n      dup3\n      dup1\n      add\n      0x01\n      add\n      dup6\n      sstore\n      dup3\n      iszero\n      tag_97\n      jumpi\n      swap2\n      dup3\n      add\n    tag_100:\n      dup3\n      dup2\n      gt\n      iszero\n      tag_101\n      jumpi\n      dup3\n      mload\n      dup3\n      sstore\n      swap2\n      0x20\n      add\n      swap2\n      swap1\n      0x01\n      add\n      swap1\n      jump(tag_100)\n    tag_101:\n    tag_97:\n      pop\n      swap1\n      pop\n      tag_102\n      swap2\n      swap1\n      tag_103\n      jump\t// in\n    tag_102:\n      pop\n      swap1\n      jump\t// out\n    tag_103:\n    tag_104:\n      dup1\n      dup3\n      gt\n      iszero\n      tag_105\n      jumpi\n      0x00\n      dup2\n      0x00\n      swap1\n      sstore\n      pop\n      0x01\n      add\n      jump(tag_104)\n    tag_105:\n      pop\n      swap1\n      jump\t// out\n        /* \"#utility.yul\":7:133   */\n    tag_106:\n        /* \"#utility.yul\":44:51   */\n      0x00\n        /* \"#utility.yul\":84:126   */\n      0xffffffffffffffffffffffffffffffffffffffff\n        /* \"#utility.yul\":77:82   */\n      dup3\n        /* \"#utility.yul\":73:127   */\n      and\n        /* \"#utility.yul\":62:127   */\n      swap1\n      pop\n        /* \"#utility.yul\":7:133   */\n      swap2\n      swap1\n      pop\n      jump\t// out\n        /* \"#utility.yul\":139:235   */\n    tag_107:\n        /* \"#utility.yul\":176:183   */\n      0x00\n        /* \"#utility.yul\":205:229   */\n      tag_139\n        /* \"#utility.yul\":223:228   */\n      dup3\n        /* \"#utility.yul\":205:229   */\n      tag_106\n      jump\t// in\n    tag_139:\n        /* \"#utility.yul\":194:229   */\n      swap1\n      pop\n        /* \"#utility.yul\":139:235   */\n      swap2\n      swap1\n      pop\n      jump\t// out\n        /* \"#utility.yul\":241:359   */\n    tag_108:\n        /* \"#utility.yul\":328:352   */\n      tag_141\n        /* \"#utility.yul\":346:351   */\n      dup2\n        /* \"#utility.yul\":328:352   */\n      tag_107\n      jump\t// in\n    tag_141:\n        /* \"#utility.yul\":323:326   */\n      dup3\n        /* \"#utility.yul\":316:353   */\n      mstore\n        /* \"#utility.yul\":241:359   */\n      pop\n      pop\n      jump\t// out\n        /* \"#utility.yul\":365:587   */\n    tag_15:\n        /* \"#utility.yul\":458:462   */\n      0x00\n        /* \"#utility.yul\":496:498   */\n      0x20\n        /* \"#utility.yul\":485:494   */\n      dup3\n        /* \"#utility.yul\":481:499   */\n      add\n        /* \"#utility.yul\":473:499   */\n      swap1\n      pop\n        /* \"#utility.yul\":509:580   */\n      tag_143\n        /* \"#utility.yul\":577:578   */\n      0x00\n        /* \"#utility.yul\":566:575   */\n      dup4\n        /* \"#utility.yul\":562:579   */\n      add\n        /* \"#utility.yul\":553:559   */\n      dup5\n        /* \"#utility.yul\":509:580   */\n      tag_108\n      jump\t// in\n    tag_143:\n        /* \"#utility.yul\":365:587   */\n      swap3\n      swap2\n      pop\n      pop\n      jump\t// out\n        /* \"#utility.yul\":593:668   */\n    tag_109:\n        /* \"#utility.yul\":626:632   */\n      0x00\n        /* \"#utility.yul\":659:661   */\n      0x40\n        /* \"#utility.yul\":653:662   */\n      mload\n        /* \"#utility.yul\":643:662   */\n      swap1\n      pop\n        /* \"#utility.yul\":593:668   */\n      swap1\n      jump\t// out\n        /* \"#utility.yul\":674:791   */\n    tag_110:\n        /* \"#utility.yul\":783:784   */\n      0x00\n        /* \"#utility.yul\":780:781   */\n      dup1\n        /* \"#utility.yul\":773:785   */\n      revert\n        /* \"#utility.yul\":797:914   */\n    tag_111:\n        /* \"#utility.yul\":906:907   */\n      0x00\n        /* \"#utility.yul\":903:904   */\n      dup1\n        /* \"#utility.yul\":896:908   */\n      revert\n        /* \"#utility.yul\":920:997   */\n    tag_112:\n        /* \"#utility.yul\":957:964   */\n      0x00\n        /* \"#utility.yul\":986:991   */\n      dup2\n        /* \"#utility.yul\":975:991   */\n      swap1\n      pop\n        /* \"#utility.yul\":920:997   */\n      swap2\n      swap1\n      pop\n      jump\t// out\n        /* \"#utility.yul\":1003:1125   */\n    tag_113:\n        /* \"#utility.yul\":1076:1100   */\n      tag_149\n        /* \"#utility.yul\":1094:1099   */\n      dup2\n        /* \"#utility.yul\":1076:1100   */\n      tag_112\n      jump\t// in\n    tag_149:\n        /* \"#utility.yul\":1069:1074   */\n      dup2\n        /* \"#utility.yul\":1066:1101   */\n      eq\n        /* \"#utility.yul\":1056:1119   */\n      tag_150\n      jumpi\n        /* \"#utility.yul\":1115:1116   */\n      0x00\n        /* \"#utility.yul\":1112:1113   */\n      dup1\n        /* \"#utility.yul\":1105:1117   */\n      revert\n        /* \"#utility.yul\":1056:1119   */\n    tag_150:\n        /* \"#utility.yul\":1003:1125   */\n      pop\n      jump\t// out\n        /* \"#utility.yul\":1131:1270   */\n    tag_114:\n        /* \"#utility.yul\":1177:1182   */\n      0x00\n        /* \"#utility.yul\":1215:1221   */\n      dup2\n        /* \"#utility.yul\":1202:1222   */\n      calldataload\n        /* \"#utility.yul\":1193:1222   */\n      swap1\n      pop\n        /* \"#utility.yul\":1231:1264   */\n      tag_152\n        /* \"#utility.yul\":1258:1263   */\n      dup2\n        /* \"#utility.yul\":1231:1264   */\n      tag_113\n      jump\t// in\n    tag_152:\n        /* \"#utility.yul\":1131:1270   */\n      swap3\n      swap2\n      pop\n      pop\n      jump\t// out\n        /* \"#utility.yul\":1276:1605   */\n    tag_18:\n        /* \"#utility.yul\":1335:1341   */\n      0x00\n        /* \"#utility.yul\":1384:1386   */\n      0x20\n        /* \"#utility.yul\":1372:1381   */\n      dup3\n        /* \"#utility.yul\":1363:1370   */\n      dup5\n        /* \"#utility.yul\":1359:1382   */\n      sub\n        /* \"#utility.yul\":1355:1387   */\n      slt\n        /* \"#utility.yul\":1352:1471   */\n      iszero\n      tag_154\n      jumpi\n        /* \"#utility.yul\":1390:1469   */\n      tag_155\n      tag_110\n      jump\t// in\n    tag_155:\n        /* \"#utility.yul\":1352:1471   */\n    tag_154:\n        /* \"#utility.yul\":1510:1511   */\n      0x00\n        /* \"#utility.yul\":1535:1588   */\n      tag_156\n        /* \"#utility.yul\":1580:1587   */\n      dup5\n        /* \"#utility.yul\":1571:1577   */\n      dup3\n        /* \"#utility.yul\":1560:1569   */\n      dup6\n        /* \"#utility.yul\":1556:1578   */\n      add\n        /* \"#utility.yul\":1535:1588   */\n      tag_114\n      jump\t// in\n    tag_156:\n        /* \"#utility.yul\":1525:1588   */\n      swap2\n      pop\n        /* \"#utility.yul\":1481:1598   */\n      pop\n        /* \"#utility.yul\":1276:1605   */\n      swap3\n      swap2\n      pop\n      pop\n      jump\t// out\n        /* \"#utility.yul\":1611:1710   */\n    tag_115:\n        /* \"#utility.yul\":1663:1669   */\n      0x00\n        /* \"#utility.yul\":1697:1702   */\n      dup2\n        /* \"#utility.yul\":1691:1703   */\n      mload\n        /* \"#utility.yul\":1681:1703   */\n      swap1\n      pop\n        /* \"#utility.yul\":1611:1710   */\n      swap2\n      swap1\n      pop\n      jump\t// out\n        /* \"#utility.yul\":1716:1885   */\n    tag_116:\n        /* \"#utility.yul\":1800:1811   */\n      0x00\n        /* \"#utility.yul\":1834:1840   */\n      dup3\n        /* \"#utility.yul\":1829:1832   */\n      dup3\n        /* \"#utility.yul\":1822:1841   */\n      mstore\n        /* \"#utility.yul\":1874:1878   */\n      0x20\n        /* \"#utility.yul\":1869:1872   */\n      dup3\n        /* \"#utility.yul\":1865:1879   */\n      add\n        /* \"#utility.yul\":1850:1879   */\n      swap1\n      pop\n        /* \"#utility.yul\":1716:1885   */\n      swap3\n      swap2\n      pop\n      pop\n      jump\t// out\n        /* \"#utility.yul\":1891:2198   */\n    tag_117:\n        /* \"#utility.yul\":1959:1960   */\n      0x00\n        /* \"#utility.yul\":1969:2082   */\n    tag_160:\n        /* \"#utility.yul\":1983:1989   */\n      dup4\n        /* \"#utility.yul\":1980:1981   */\n      dup2\n        /* \"#utility.yul\":1977:1990   */\n      lt\n        /* \"#utility.yul\":1969:2082   */\n      iszero\n      tag_162\n      jumpi\n        /* \"#utility.yul\":2068:2069   */\n      dup1\n        /* \"#utility.yul\":2063:2066   */\n      dup3\n        /* \"#utility.yul\":2059:2070   */\n      add\n        /* \"#utility.yul\":2053:2071   */\n      mload\n        /* \"#utility.yul\":2049:2050   */\n      dup2\n        /* \"#utility.yul\":2044:2047   */\n      dup5\n        /* \"#utility.yul\":2040:2051   */\n      add\n        /* \"#utility.yul\":2033:2072   */\n      mstore\n        /* \"#utility.yul\":2005:2007   */\n      0x20\n        /* \"#utility.yul\":2002:2003   */\n      dup2\n        /* \"#utility.yul\":1998:2008   */\n      add\n        /* \"#utility.yul\":1993:2008   */\n      swap1\n      pop\n        /* \"#utility.yul\":1969:2082   */\n      jump(tag_160)\n    tag_162:\n        /* \"#utility.yul\":2100:2106   */\n      dup4\n        /* \"#utility.yul\":2097:2098   */\n      dup2\n        /* \"#utility.yul\":2094:2107   */\n      gt\n        /* \"#utility.yul\":2091:2192   */\n      iszero\n      tag_163\n      jumpi\n        /* \"#utility.yul\":2180:2181   */\n      0x00\n        /* \"#utility.yul\":2171:2177   */\n      dup5\n        /* \"#utility.yul\":2166:2169   */\n      dup5\n        /* \"#utility.yul\":2162:2178   */\n      add\n        /* \"#utility.yul\":2155:2182   */\n      mstore\n        /* \"#utility.yul\":2091:2192   */\n    tag_163:\n        /* \"#utility.yul\":1940:2198   */\n      pop\n        /* \"#utility.yul\":1891:2198   */\n      pop\n      pop\n      pop\n      jump\t// out\n        /* \"#utility.yul\":2204:2306   */\n    tag_118:\n        /* \"#utility.yul\":2245:2251   */\n      0x00\n        /* \"#utility.yul\":2296:2298   */\n      0x1f\n        /* \"#utility.yul\":2292:2299   */\n      not\n        /* \"#utility.yul\":2287:2289   */\n      0x1f\n        /* \"#utility.yul\":2280:2285   */\n      dup4\n        /* \"#utility.yul\":2276:2290   */\n      add\n        /* \"#utility.yul\":2272:2300   */\n      and\n        /* \"#utility.yul\":2262:2300   */\n      swap1\n      pop\n        /* \"#utility.yul\":2204:2306   */\n      swap2\n      swap1\n      pop\n      jump\t// out\n        /* \"#utility.yul\":2312:2676   */\n    tag_119:\n        /* \"#utility.yul\":2400:2403   */\n      0x00\n        /* \"#utility.yul\":2428:2467   */\n      tag_166\n        /* \"#utility.yul\":2461:2466   */\n      dup3\n        /* \"#utility.yul\":2428:2467   */\n      tag_115\n      jump\t// in\n    tag_166:\n        /* \"#utility.yul\":2483:2554   */\n      tag_167\n        /* \"#utility.yul\":2547:2553   */\n      dup2\n        /* \"#utility.yul\":2542:2545   */\n      dup6\n        /* \"#utility.yul\":2483:2554   */\n      tag_116\n      jump\t// in\n    tag_167:\n        /* \"#utility.yul\":2476:2554   */\n      swap4\n      pop\n        /* \"#utility.yul\":2563:2615   */\n      tag_168\n        /* \"#utility.yul\":2608:2614   */\n      dup2\n        /* \"#utility.yul\":2603:2606   */\n      dup6\n        /* \"#utility.yul\":2596:2600   */\n      0x20\n        /* \"#utility.yul\":2589:2594   */\n      dup7\n        /* \"#utility.yul\":2585:2601   */\n      add\n        /* \"#utility.yul\":2563:2615   */\n      tag_117\n      jump\t// in\n    tag_168:\n        /* \"#utility.yul\":2640:2669   */\n      tag_169\n        /* \"#utility.yul\":2662:2668   */\n      dup2\n        /* \"#utility.yul\":2640:2669   */\n      tag_118\n      jump\t// in\n    tag_169:\n        /* \"#utility.yul\":2635:2638   */\n      dup5\n        /* \"#utility.yul\":2631:2670   */\n      add\n        /* \"#utility.yul\":2624:2670   */\n      swap2\n      pop\n        /* \"#utility.yul\":2404:2676   */\n      pop\n        /* \"#utility.yul\":2312:2676   */\n      swap3\n      swap2\n      pop\n      pop\n      jump\t// out\n        /* \"#utility.yul\":2682:2800   */\n    tag_120:\n        /* \"#utility.yul\":2769:2793   */\n      tag_171\n        /* \"#utility.yul\":2787:2792   */\n      dup2\n        /* \"#utility.yul\":2769:2793   */\n      tag_112\n      jump\t// in\n    tag_171:\n        /* \"#utility.yul\":2764:2767   */\n      dup3\n        /* \"#utility.yul\":2757:2794   */\n      mstore\n        /* \"#utility.yul\":2682:2800   */\n      pop\n      pop\n      jump\t// out\n        /* \"#utility.yul\":2806:2896   */\n    tag_121:\n        /* \"#utility.yul\":2840:2847   */\n      0x00\n        /* \"#utility.yul\":2883:2888   */\n      dup2\n        /* \"#utility.yul\":2876:2889   */\n      iszero\n        /* \"#utility.yul\":2869:2890   */\n      iszero\n        /* \"#utility.yul\":2858:2890   */\n      swap1\n      pop\n        /* \"#utility.yul\":2806:2896   */\n      swap2\n      swap1\n      pop\n      jump\t// out\n        /* \"#utility.yul\":2902:3011   */\n    tag_122:\n        /* \"#utility.yul\":2983:3004   */\n      tag_174\n        /* \"#utility.yul\":2998:3003   */\n      dup2\n        /* \"#utility.yul\":2983:3004   */\n      tag_121\n      jump\t// in\n    tag_174:\n        /* \"#utility.yul\":2978:2981   */\n      dup3\n        /* \"#utility.yul\":2971:3005   */\n      mstore\n        /* \"#utility.yul\":2902:3011   */\n      pop\n      pop\n      jump\t// out\n        /* \"#utility.yul\":3017:4041   */\n    tag_27:\n        /* \"#utility.yul\":3298:3302   */\n      0x00\n        /* \"#utility.yul\":3336:3339   */\n      0xc0\n        /* \"#utility.yul\":3325:3334   */\n      dup3\n        /* \"#utility.yul\":3321:3340   */\n      add\n        /* \"#utility.yul\":3313:3340   */\n      swap1\n      pop\n        /* \"#utility.yul\":3386:3395   */\n      dup2\n        /* \"#utility.yul\":3380:3384   */\n      dup2\n        /* \"#utility.yul\":3376:3396   */\n      sub\n        /* \"#utility.yul\":3372:3373   */\n      0x00\n        /* \"#utility.yul\":3361:3370   */\n      dup4\n        /* \"#utility.yul\":3357:3374   */\n      add\n        /* \"#utility.yul\":3350:3397   */\n      mstore\n        /* \"#utility.yul\":3414:3492   */\n      tag_176\n        /* \"#utility.yul\":3487:3491   */\n      dup2\n        /* \"#utility.yul\":3478:3484   */\n      dup10\n        /* \"#utility.yul\":3414:3492   */\n      tag_119\n      jump\t// in\n    tag_176:\n        /* \"#utility.yul\":3406:3492   */\n      swap1\n      pop\n        /* \"#utility.yul\":3502:3574   */\n      tag_177\n        /* \"#utility.yul\":3570:3572   */\n      0x20\n        /* \"#utility.yul\":3559:3568   */\n      dup4\n        /* \"#utility.yul\":3555:3573   */\n      add\n        /* \"#utility.yul\":3546:3552   */\n      dup9\n        /* \"#utility.yul\":3502:3574   */\n      tag_120\n      jump\t// in\n    tag_177:\n        /* \"#utility.yul\":3621:3630   */\n      dup2\n        /* \"#utility.yul\":3615:3619   */\n      dup2\n        /* \"#utility.yul\":3611:3631   */\n      sub\n        /* \"#utility.yul\":3606:3608   */\n      0x40\n        /* \"#utility.yul\":3595:3604   */\n      dup4\n        /* \"#utility.yul\":3591:3609   */\n      add\n        /* \"#utility.yul\":3584:3632   */\n      mstore\n        /* \"#utility.yul\":3649:3727   */\n      tag_178\n        /* \"#utility.yul\":3722:3726   */\n      dup2\n        /* \"#utility.yul\":3713:3719   */\n      dup8\n        /* \"#utility.yul\":3649:3727   */\n      tag_119\n      jump\t// in\n    tag_178:\n        /* \"#utility.yul\":3641:3727   */\n      swap1\n      pop\n        /* \"#utility.yul\":3774:3783   */\n      dup2\n        /* \"#utility.yul\":3768:3772   */\n      dup2\n        /* \"#utility.yul\":3764:3784   */\n      sub\n        /* \"#utility.yul\":3759:3761   */\n      0x60\n        /* \"#utility.yul\":3748:3757   */\n      dup4\n        /* \"#utility.yul\":3744:3762   */\n      add\n        /* \"#utility.yul\":3737:3785   */\n      mstore\n        /* \"#utility.yul\":3802:3880   */\n      tag_179\n        /* \"#utility.yul\":3875:3879   */\n      dup2\n        /* \"#utility.yul\":3866:3872   */\n      dup7\n        /* \"#utility.yul\":3802:3880   */\n      tag_119\n      jump\t// in\n    tag_179:\n        /* \"#utility.yul\":3794:3880   */\n      swap1\n      pop\n        /* \"#utility.yul\":3890:3957   */\n      tag_180\n        /* \"#utility.yul\":3952:3955   */\n      0x80\n        /* \"#utility.yul\":3941:3950   */\n      dup4\n        /* \"#utility.yul\":3937:3956   */\n      add\n        /* \"#utility.yul\":3928:3934   */\n      dup6\n        /* \"#utility.yul\":3890:3957   */\n      tag_122\n      jump\t// in\n    tag_180:\n        /* \"#utility.yul\":3967:4034   */\n      tag_181\n        /* \"#utility.yul\":4029:4032   */\n      0xa0\n        /* \"#utility.yul\":4018:4027   */\n      dup4\n        /* \"#utility.yul\":4014:4033   */\n      add\n        /* \"#utility.yul\":4005:4011   */\n      dup5\n        /* \"#utility.yul\":3967:4034   */\n      tag_122\n      jump\t// in\n    tag_181:\n        /* \"#utility.yul\":3017:4041   */\n      swap8\n      swap7\n      pop\n      pop\n      pop\n      pop\n      pop\n      pop\n      pop\n      jump\t// out\n        /* \"#utility.yul\":4047:4458   */\n    tag_32:\n        /* \"#utility.yul\":4182:4186   */\n      0x00\n        /* \"#utility.yul\":4220:4222   */\n      0x40\n        /* \"#utility.yul\":4209:4218   */\n      dup3\n        /* \"#utility.yul\":4205:4223   */\n      add\n        /* \"#utility.yul\":4197:4223   */\n      swap1\n      pop\n        /* \"#utility.yul\":4233:4298   */\n      tag_183\n        /* \"#utility.yul\":4295:4296   */\n      0x00\n        /* \"#utility.yul\":4284:4293   */\n      dup4\n        /* \"#utility.yul\":4280:4297   */\n      add\n        /* \"#utility.yul\":4271:4277   */\n      dup6\n        /* \"#utility.yul\":4233:4298   */\n      tag_122\n      jump\t// in\n    tag_183:\n        /* \"#utility.yul\":4345:4354   */\n      dup2\n        /* \"#utility.yul\":4339:4343   */\n      dup2\n        /* \"#utility.yul\":4335:4355   */\n      sub\n        /* \"#utility.yul\":4330:4332   */\n      0x20\n        /* \"#utility.yul\":4319:4328   */\n      dup4\n        /* \"#utility.yul\":4315:4333   */\n      add\n        /* \"#utility.yul\":4308:4356   */\n      mstore\n        /* \"#utility.yul\":4373:4451   */\n      tag_184\n        /* \"#utility.yul\":4446:4450   */\n      dup2\n        /* \"#utility.yul\":4437:4443   */\n      dup5\n        /* \"#utility.yul\":4373:4451   */\n      tag_119\n      jump\t// in\n    tag_184:\n        /* \"#utility.yul\":4365:4451   */\n      swap1\n      pop\n        /* \"#utility.yul\":4047:4458   */\n      swap4\n      swap3\n      pop\n      pop\n      pop\n      jump\t// out\n        /* \"#utility.yul\":4464:4581   */\n    tag_123:\n        /* \"#utility.yul\":4573:4574   */\n      0x00\n        /* \"#utility.yul\":4570:4571   */\n      dup1\n        /* \"#utility.yul\":4563:4575   */\n      revert\n        /* \"#utility.yul\":4587:4704   */\n    tag_124:\n        /* \"#utility.yul\":4696:4697   */\n      0x00\n        /* \"#utility.yul\":4693:4694   */\n      dup1\n        /* \"#utility.yul\":4686:4698   */\n      revert\n        /* \"#utility.yul\":4710:4890   */\n    tag_125:\n        /* \"#utility.yul\":4758:4835   */\n      0x4e487b7100000000000000000000000000000000000000000000000000000000\n        /* \"#utility.yul\":4755:4756   */\n      0x00\n        /* \"#utility.yul\":4748:4836   */\n      mstore\n        /* \"#utility.yul\":4855:4859   */\n      0x41\n        /* \"#utility.yul\":4852:4853   */\n      0x04\n        /* \"#utility.yul\":4845:4860   */\n      mstore\n        /* \"#utility.yul\":4879:4883   */\n      0x24\n        /* \"#utility.yul\":4876:4877   */\n      0x00\n        /* \"#utility.yul\":4869:4884   */\n      revert\n        /* \"#utility.yul\":4896:5177   */\n    tag_126:\n        /* \"#utility.yul\":4979:5006   */\n      tag_189\n        /* \"#utility.yul\":5001:5005   */\n      dup3\n        /* \"#utility.yul\":4979:5006   */\n      tag_118\n      jump\t// in\n    tag_189:\n        /* \"#utility.yul\":4971:4977   */\n      dup2\n        /* \"#utility.yul\":4967:5007   */\n      add\n        /* \"#utility.yul\":5109:5115   */\n      dup2\n        /* \"#utility.yul\":5097:5107   */\n      dup2\n        /* \"#utility.yul\":5094:5116   */\n      lt\n        /* \"#utility.yul\":5073:5091   */\n      0xffffffffffffffff\n        /* \"#utility.yul\":5061:5071   */\n      dup3\n        /* \"#utility.yul\":5058:5092   */\n      gt\n        /* \"#utility.yul\":5055:5117   */\n      or\n        /* \"#utility.yul\":5052:5140   */\n      iszero\n      tag_190\n      jumpi\n        /* \"#utility.yul\":5120:5138   */\n      tag_191\n      tag_125\n      jump\t// in\n    tag_191:\n        /* \"#utility.yul\":5052:5140   */\n    tag_190:\n        /* \"#utility.yul\":5160:5170   */\n      dup1\n        /* \"#utility.yul\":5156:5158   */\n      0x40\n        /* \"#utility.yul\":5149:5171   */\n      mstore\n        /* \"#utility.yul\":4939:5177   */\n      pop\n        /* \"#utility.yul\":4896:5177   */\n      pop\n      pop\n      jump\t// out\n        /* \"#utility.yul\":5183:5312   */\n    tag_127:\n        /* \"#utility.yul\":5217:5223   */\n      0x00\n        /* \"#utility.yul\":5244:5264   */\n      tag_193\n      tag_109\n      jump\t// in\n    tag_193:\n        /* \"#utility.yul\":5234:5264   */\n      swap1\n      pop\n        /* \"#utility.yul\":5273:5306   */\n      tag_194\n        /* \"#utility.yul\":5301:5305   */\n      dup3\n        /* \"#utility.yul\":5293:5299   */\n      dup3\n        /* \"#utility.yul\":5273:5306   */\n      tag_126\n      jump\t// in\n    tag_194:\n        /* \"#utility.yul\":5183:5312   */\n      swap2\n      swap1\n      pop\n      jump\t// out\n        /* \"#utility.yul\":5318:5626   */\n    tag_128:\n        /* \"#utility.yul\":5380:5384   */\n      0x00\n        /* \"#utility.yul\":5470:5488   */\n      0xffffffffffffffff\n        /* \"#utility.yul\":5462:5468   */\n      dup3\n        /* \"#utility.yul\":5459:5489   */\n      gt\n        /* \"#utility.yul\":5456:5512   */\n      iszero\n      tag_196\n      jumpi\n        /* \"#utility.yul\":5492:5510   */\n      tag_197\n      tag_125\n      jump\t// in\n    tag_197:\n        /* \"#utility.yul\":5456:5512   */\n    tag_196:\n        /* \"#utility.yul\":5530:5559   */\n      tag_198\n        /* \"#utility.yul\":5552:5558   */\n      dup3\n        /* \"#utility.yul\":5530:5559   */\n      tag_118\n      jump\t// in\n    tag_198:\n        /* \"#utility.yul\":5522:5559   */\n      swap1\n      pop\n        /* \"#utility.yul\":5614:5618   */\n      0x20\n        /* \"#utility.yul\":5608:5612   */\n      dup2\n        /* \"#utility.yul\":5604:5619   */\n      add\n        /* \"#utility.yul\":5596:5619   */\n      swap1\n      pop\n        /* \"#utility.yul\":5318:5626   */\n      swap2\n      swap1\n      pop\n      jump\t// out\n        /* \"#utility.yul\":5632:5786   */\n    tag_129:\n        /* \"#utility.yul\":5716:5722   */\n      dup3\n        /* \"#utility.yul\":5711:5714   */\n      dup2\n        /* \"#utility.yul\":5706:5709   */\n      dup4\n        /* \"#utility.yul\":5693:5723   */\n      calldatacopy\n        /* \"#utility.yul\":5778:5779   */\n      0x00\n        /* \"#utility.yul\":5769:5775   */\n      dup4\n        /* \"#utility.yul\":5764:5767   */\n      dup4\n        /* \"#utility.yul\":5760:5776   */\n      add\n        /* \"#utility.yul\":5753:5780   */\n      mstore\n        /* \"#utility.yul\":5632:5786   */\n      pop\n      pop\n      pop\n      jump\t// out\n        /* \"#utility.yul\":5792:6204   */\n    tag_130:\n        /* \"#utility.yul\":5870:5875   */\n      0x00\n        /* \"#utility.yul\":5895:5961   */\n      tag_201\n        /* \"#utility.yul\":5911:5960   */\n      tag_202\n        /* \"#utility.yul\":5953:5959   */\n      dup5\n        /* \"#utility.yul\":5911:5960   */\n      tag_128\n      jump\t// in\n    tag_202:\n        /* \"#utility.yul\":5895:5961   */\n      tag_127\n      jump\t// in\n    tag_201:\n        /* \"#utility.yul\":5886:5961   */\n      swap1\n      pop\n        /* \"#utility.yul\":5984:5990   */\n      dup3\n        /* \"#utility.yul\":5977:5982   */\n      dup2\n        /* \"#utility.yul\":5970:5991   */\n      mstore\n        /* \"#utility.yul\":6022:6026   */\n      0x20\n        /* \"#utility.yul\":6015:6020   */\n      dup2\n        /* \"#utility.yul\":6011:6027   */\n      add\n        /* \"#utility.yul\":6060:6063   */\n      dup5\n        /* \"#utility.yul\":6051:6057   */\n      dup5\n        /* \"#utility.yul\":6046:6049   */\n      dup5\n        /* \"#utility.yul\":6042:6058   */\n      add\n        /* \"#utility.yul\":6039:6064   */\n      gt\n        /* \"#utility.yul\":6036:6148   */\n      iszero\n      tag_203\n      jumpi\n        /* \"#utility.yul\":6067:6146   */\n      tag_204\n      tag_124\n      jump\t// in\n    tag_204:\n        /* \"#utility.yul\":6036:6148   */\n    tag_203:\n        /* \"#utility.yul\":6157:6198   */\n      tag_205\n        /* \"#utility.yul\":6191:6197   */\n      dup5\n        /* \"#utility.yul\":6186:6189   */\n      dup3\n        /* \"#utility.yul\":6181:6184   */\n      dup6\n        /* \"#utility.yul\":6157:6198   */\n      tag_129\n      jump\t// in\n    tag_205:\n        /* \"#utility.yul\":5876:6204   */\n      pop\n        /* \"#utility.yul\":5792:6204   */\n      swap4\n      swap3\n      pop\n      pop\n      pop\n      jump\t// out\n        /* \"#utility.yul\":6224:6564   */\n    tag_131:\n        /* \"#utility.yul\":6280:6285   */\n      0x00\n        /* \"#utility.yul\":6329:6332   */\n      dup3\n        /* \"#utility.yul\":6322:6326   */\n      0x1f\n        /* \"#utility.yul\":6314:6320   */\n      dup4\n        /* \"#utility.yul\":6310:6327   */\n      add\n        /* \"#utility.yul\":6306:6333   */\n      slt\n        /* \"#utility.yul\":6296:6418   */\n      tag_207\n      jumpi\n        /* \"#utility.yul\":6337:6416   */\n      tag_208\n      tag_123\n      jump\t// in\n    tag_208:\n        /* \"#utility.yul\":6296:6418   */\n    tag_207:\n        /* \"#utility.yul\":6454:6460   */\n      dup2\n        /* \"#utility.yul\":6441:6461   */\n      calldataload\n        /* \"#utility.yul\":6479:6558   */\n      tag_209\n        /* \"#utility.yul\":6554:6557   */\n      dup5\n        /* \"#utility.yul\":6546:6552   */\n      dup3\n        /* \"#utility.yul\":6539:6543   */\n      0x20\n        /* \"#utility.yul\":6531:6537   */\n      dup7\n        /* \"#utility.yul\":6527:6544   */\n      add\n        /* \"#utility.yul\":6479:6558   */\n      tag_130\n      jump\t// in\n    tag_209:\n        /* \"#utility.yul\":6470:6558   */\n      swap2\n      pop\n        /* \"#utility.yul\":6286:6564   */\n      pop\n        /* \"#utility.yul\":6224:6564   */\n      swap3\n      swap2\n      pop\n      pop\n      jump\t// out\n        /* \"#utility.yul\":6570:7875   */\n    tag_35:\n        /* \"#utility.yul\":6686:6692   */\n      0x00\n        /* \"#utility.yul\":6694:6700   */\n      dup1\n        /* \"#utility.yul\":6702:6708   */\n      0x00\n        /* \"#utility.yul\":6710:6716   */\n      dup1\n        /* \"#utility.yul\":6759:6762   */\n      0x80\n        /* \"#utility.yul\":6747:6756   */\n      dup6\n        /* \"#utility.yul\":6738:6745   */\n      dup8\n        /* \"#utility.yul\":6734:6757   */\n      sub\n        /* \"#utility.yul\":6730:6763   */\n      slt\n        /* \"#utility.yul\":6727:6847   */\n      iszero\n      tag_211\n      jumpi\n        /* \"#utility.yul\":6766:6845   */\n      tag_212\n      tag_110\n      jump\t// in\n    tag_212:\n        /* \"#utility.yul\":6727:6847   */\n    tag_211:\n        /* \"#utility.yul\":6914:6915   */\n      0x00\n        /* \"#utility.yul\":6903:6912   */\n      dup6\n        /* \"#utility.yul\":6899:6916   */\n      add\n        /* \"#utility.yul\":6886:6917   */\n      calldataload\n        /* \"#utility.yul\":6944:6962   */\n      0xffffffffffffffff\n        /* \"#utility.yul\":6936:6942   */\n      dup2\n        /* \"#utility.yul\":6933:6963   */\n      gt\n        /* \"#utility.yul\":6930:7047   */\n      iszero\n      tag_213\n      jumpi\n        /* \"#utility.yul\":6966:7045   */\n      tag_214\n      tag_111\n      jump\t// in\n    tag_214:\n        /* \"#utility.yul\":6930:7047   */\n    tag_213:\n        /* \"#utility.yul\":7071:7134   */\n      tag_215\n        /* \"#utility.yul\":7126:7133   */\n      dup8\n        /* \"#utility.yul\":7117:7123   */\n      dup3\n        /* \"#utility.yul\":7106:7115   */\n      dup9\n        /* \"#utility.yul\":7102:7124   */\n      add\n        /* \"#utility.yul\":7071:7134   */\n      tag_131\n      jump\t// in\n    tag_215:\n        /* \"#utility.yul\":7061:7134   */\n      swap5\n      pop\n        /* \"#utility.yul\":6857:7144   */\n      pop\n        /* \"#utility.yul\":7211:7213   */\n      0x20\n        /* \"#utility.yul\":7200:7209   */\n      dup6\n        /* \"#utility.yul\":7196:7214   */\n      add\n        /* \"#utility.yul\":7183:7215   */\n      calldataload\n        /* \"#utility.yul\":7242:7260   */\n      0xffffffffffffffff\n        /* \"#utility.yul\":7234:7240   */\n      dup2\n        /* \"#utility.yul\":7231:7261   */\n      gt\n        /* \"#utility.yul\":7228:7345   */\n      iszero\n      tag_216\n      jumpi\n        /* \"#utility.yul\":7264:7343   */\n      tag_217\n      tag_111\n      jump\t// in\n    tag_217:\n        /* \"#utility.yul\":7228:7345   */\n    tag_216:\n        /* \"#utility.yul\":7369:7432   */\n      tag_218\n        /* \"#utility.yul\":7424:7431   */\n      dup8\n        /* \"#utility.yul\":7415:7421   */\n      dup3\n        /* \"#utility.yul\":7404:7413   */\n      dup9\n        /* \"#utility.yul\":7400:7422   */\n      add\n        /* \"#utility.yul\":7369:7432   */\n      tag_131\n      jump\t// in\n    tag_218:\n        /* \"#utility.yul\":7359:7432   */\n      swap4\n      pop\n        /* \"#utility.yul\":7154:7442   */\n      pop\n        /* \"#utility.yul\":7509:7511   */\n      0x40\n        /* \"#utility.yul\":7498:7507   */\n      dup6\n        /* \"#utility.yul\":7494:7512   */\n      add\n        /* \"#utility.yul\":7481:7513   */\n      calldataload\n        /* \"#utility.yul\":7540:7558   */\n      0xffffffffffffffff\n        /* \"#utility.yul\":7532:7538   */\n      dup2\n        /* \"#utility.yul\":7529:7559   */\n      gt\n        /* \"#utility.yul\":7526:7643   */\n      iszero\n      tag_219\n      jumpi\n        /* \"#utility.yul\":7562:7641   */\n      tag_220\n      tag_111\n      jump\t// in\n    tag_220:\n        /* \"#utility.yul\":7526:7643   */\n    tag_219:\n        /* \"#utility.yul\":7667:7730   */\n      tag_221\n        /* \"#utility.yul\":7722:7729   */\n      dup8\n        /* \"#utility.yul\":7713:7719   */\n      dup3\n        /* \"#utility.yul\":7702:7711   */\n      dup9\n        /* \"#utility.yul\":7698:7720   */\n      add\n        /* \"#utility.yul\":7667:7730   */\n      tag_131\n      jump\t// in\n    tag_221:\n        /* \"#utility.yul\":7657:7730   */\n      swap3\n      pop\n        /* \"#utility.yul\":7452:7740   */\n      pop\n        /* \"#utility.yul\":7779:7781   */\n      0x60\n        /* \"#utility.yul\":7805:7858   */\n      tag_222\n        /* \"#utility.yul\":7850:7857   */\n      dup8\n        /* \"#utility.yul\":7841:7847   */\n      dup3\n        /* \"#utility.yul\":7830:7839   */\n      dup9\n        /* \"#utility.yul\":7826:7848   */\n      add\n        /* \"#utility.yul\":7805:7858   */\n      tag_114\n      jump\t// in\n    tag_222:\n        /* \"#utility.yul\":7795:7858   */\n      swap2\n      pop\n        /* \"#utility.yul\":7750:7868   */\n      pop\n        /* \"#utility.yul\":6570:7875   */\n      swap3\n      swap6\n      swap2\n      swap5\n      pop\n      swap3\n      pop\n      jump\t// out\n        /* \"#utility.yul\":7881:8390   */\n    tag_42:\n        /* \"#utility.yul\":7950:7956   */\n      0x00\n        /* \"#utility.yul\":7999:8001   */\n      0x20\n        /* \"#utility.yul\":7987:7996   */\n      dup3\n        /* \"#utility.yul\":7978:7985   */\n      dup5\n        /* \"#utility.yul\":7974:7997   */\n      sub\n        /* \"#utility.yul\":7970:8002   */\n      slt\n        /* \"#utility.yul\":7967:8086   */\n      iszero\n      tag_224\n      jumpi\n        /* \"#utility.yul\":8005:8084   */\n      tag_225\n      tag_110\n      jump\t// in\n    tag_225:\n        /* \"#utility.yul\":7967:8086   */\n    tag_224:\n        /* \"#utility.yul\":8153:8154   */\n      0x00\n        /* \"#utility.yul\":8142:8151   */\n      dup3\n        /* \"#utility.yul\":8138:8155   */\n      add\n        /* \"#utility.yul\":8125:8156   */\n      calldataload\n        /* \"#utility.yul\":8183:8201   */\n      0xffffffffffffffff\n        /* \"#utility.yul\":8175:8181   */\n      dup2\n        /* \"#utility.yul\":8172:8202   */\n      gt\n        /* \"#utility.yul\":8169:8286   */\n      iszero\n      tag_226\n      jumpi\n        /* \"#utility.yul\":8205:8284   */\n      tag_227\n      tag_111\n      jump\t// in\n    tag_227:\n        /* \"#utility.yul\":8169:8286   */\n    tag_226:\n        /* \"#utility.yul\":8310:8373   */\n      tag_228\n        /* \"#utility.yul\":8365:8372   */\n      dup5\n        /* \"#utility.yul\":8356:8362   */\n      dup3\n        /* \"#utility.yul\":8345:8354   */\n      dup6\n        /* \"#utility.yul\":8341:8363   */\n      add\n        /* \"#utility.yul\":8310:8373   */\n      tag_131\n      jump\t// in\n    tag_228:\n        /* \"#utility.yul\":8300:8373   */\n      swap2\n      pop\n        /* \"#utility.yul\":8096:8383   */\n      pop\n        /* \"#utility.yul\":7881:8390   */\n      swap3\n      swap2\n      pop\n      pop\n      jump\t// out\n        /* \"#utility.yul\":8396:8617   */\n    tag_132:\n        /* \"#utility.yul\":8536:8570   */\n      0x596f7520646964206e6f7420637265617465207468697320746f20646f206c69\n        /* \"#utility.yul\":8532:8533   */\n      0x00\n        /* \"#utility.yul\":8524:8530   */\n      dup3\n        /* \"#utility.yul\":8520:8534   */\n      add\n        /* \"#utility.yul\":8513:8571   */\n      mstore\n        /* \"#utility.yul\":8605:8609   */\n      0x7374000000000000000000000000000000000000000000000000000000000000\n        /* \"#utility.yul\":8600:8602   */\n      0x20\n        /* \"#utility.yul\":8592:8598   */\n      dup3\n        /* \"#utility.yul\":8588:8603   */\n      add\n        /* \"#utility.yul\":8581:8610   */\n      mstore\n        /* \"#utility.yul\":8396:8617   */\n      pop\n      jump\t// out\n        /* \"#utility.yul\":8623:8989   */\n    tag_133:\n        /* \"#utility.yul\":8765:8768   */\n      0x00\n        /* \"#utility.yul\":8786:8853   */\n      tag_231\n        /* \"#utility.yul\":8850:8852   */\n      0x22\n        /* \"#utility.yul\":8845:8848   */\n      dup4\n        /* \"#utility.yul\":8786:8853   */\n      tag_116\n      jump\t// in\n    tag_231:\n        /* \"#utility.yul\":8779:8853   */\n      swap2\n      pop\n        /* \"#utility.yul\":8862:8955   */\n      tag_232\n        /* \"#utility.yul\":8951:8954   */\n      dup3\n        /* \"#utility.yul\":8862:8955   */\n      tag_132\n      jump\t// in\n    tag_232:\n        /* \"#utility.yul\":8980:8982   */\n      0x40\n        /* \"#utility.yul\":8975:8978   */\n      dup3\n        /* \"#utility.yul\":8971:8983   */\n      add\n        /* \"#utility.yul\":8964:8983   */\n      swap1\n      pop\n        /* \"#utility.yul\":8623:8989   */\n      swap2\n      swap1\n      pop\n      jump\t// out\n        /* \"#utility.yul\":8995:9414   */\n    tag_47:\n        /* \"#utility.yul\":9161:9165   */\n      0x00\n        /* \"#utility.yul\":9199:9201   */\n      0x20\n        /* \"#utility.yul\":9188:9197   */\n      dup3\n        /* \"#utility.yul\":9184:9202   */\n      add\n        /* \"#utility.yul\":9176:9202   */\n      swap1\n      pop\n        /* \"#utility.yul\":9248:9257   */\n      dup2\n        /* \"#utility.yul\":9242:9246   */\n      dup2\n        /* \"#utility.yul\":9238:9258   */\n      sub\n        /* \"#utility.yul\":9234:9235   */\n      0x00\n        /* \"#utility.yul\":9223:9232   */\n      dup4\n        /* \"#utility.yul\":9219:9236   */\n      add\n        /* \"#utility.yul\":9212:9259   */\n      mstore\n        /* \"#utility.yul\":9276:9407   */\n      tag_234\n        /* \"#utility.yul\":9402:9406   */\n      dup2\n        /* \"#utility.yul\":9276:9407   */\n      tag_133\n      jump\t// in\n    tag_234:\n        /* \"#utility.yul\":9268:9407   */\n      swap1\n      pop\n        /* \"#utility.yul\":8995:9414   */\n      swap2\n      swap1\n      pop\n      jump\t// out\n        /* \"#utility.yul\":9420:9740   */\n    tag_54:\n        /* \"#utility.yul\":9535:9539   */\n      0x00\n        /* \"#utility.yul\":9573:9575   */\n      0x40\n        /* \"#utility.yul\":9562:9571   */\n      dup3\n        /* \"#utility.yul\":9558:9576   */\n      add\n        /* \"#utility.yul\":9550:9576   */\n      swap1\n      pop\n        /* \"#utility.yul\":9586:9657   */\n      tag_236\n        /* \"#utility.yul\":9654:9655   */\n      0x00\n        /* \"#utility.yul\":9643:9652   */\n      dup4\n        /* \"#utility.yul\":9639:9656   */\n      add\n        /* \"#utility.yul\":9630:9636   */\n      dup6\n        /* \"#utility.yul\":9586:9657   */\n      tag_120\n      jump\t// in\n    tag_236:\n        /* \"#utility.yul\":9667:9733   */\n      tag_237\n        /* \"#utility.yul\":9729:9731   */\n      0x20\n        /* \"#utility.yul\":9718:9727   */\n      dup4\n        /* \"#utility.yul\":9714:9732   */\n      add\n        /* \"#utility.yul\":9705:9711   */\n      dup5\n        /* \"#utility.yul\":9667:9733   */\n      tag_122\n      jump\t// in\n    tag_237:\n        /* \"#utility.yul\":9420:9740   */\n      swap4\n      swap3\n      pop\n      pop\n      pop\n      jump\t// out\n        /* \"#utility.yul\":9746:9926   */\n    tag_134:\n        /* \"#utility.yul\":9794:9871   */\n      0x4e487b7100000000000000000000000000000000000000000000000000000000\n        /* \"#utility.yul\":9791:9792   */\n      0x00\n        /* \"#utility.yul\":9784:9872   */\n      mstore\n        /* \"#utility.yul\":9891:9895   */\n      0x22\n        /* \"#utility.yul\":9888:9889   */\n      0x04\n        /* \"#utility.yul\":9881:9896   */\n      mstore\n        /* \"#utility.yul\":9915:9919   */\n      0x24\n        /* \"#utility.yul\":9912:9913   */\n      0x00\n        /* \"#utility.yul\":9905:9920   */\n      revert\n        /* \"#utility.yul\":9932:10252   */\n    tag_56:\n        /* \"#utility.yul\":9976:9982   */\n      0x00\n        /* \"#utility.yul\":10013:10014   */\n      0x02\n        /* \"#utility.yul\":10007:10011   */\n      dup3\n        /* \"#utility.yul\":10003:10015   */\n      div\n        /* \"#utility.yul\":9993:10015   */\n      swap1\n      pop\n        /* \"#utility.yul\":10060:10061   */\n      0x01\n        /* \"#utility.yul\":10054:10058   */\n      dup3\n        /* \"#utility.yul\":10050:10062   */\n      and\n        /* \"#utility.yul\":10081:10099   */\n      dup1\n        /* \"#utility.yul\":10071:10152   */\n      tag_240\n      jumpi\n        /* \"#utility.yul\":10137:10141   */\n      0x7f\n        /* \"#utility.yul\":10129:10135   */\n      dup3\n        /* \"#utility.yul\":10125:10142   */\n      and\n        /* \"#utility.yul\":10115:10142   */\n      swap2\n      pop\n        /* \"#utility.yul\":10071:10152   */\n    tag_240:\n        /* \"#utility.yul\":10199:10201   */\n      0x20\n        /* \"#utility.yul\":10191:10197   */\n      dup3\n        /* \"#utility.yul\":10188:10202   */\n      lt\n        /* \"#utility.yul\":10168:10186   */\n      dup2\n        /* \"#utility.yul\":10165:10203   */\n      eq\n        /* \"#utility.yul\":10162:10246   */\n      iszero\n      tag_241\n      jumpi\n        /* \"#utility.yul\":10218:10236   */\n      tag_242\n      tag_134\n      jump\t// in\n    tag_242:\n        /* \"#utility.yul\":10162:10246   */\n    tag_241:\n        /* \"#utility.yul\":9983:10252   */\n      pop\n        /* \"#utility.yul\":9932:10252   */\n      swap2\n      swap1\n      pop\n      jump\t// out\n        /* \"#utility.yul\":10258:10438   */\n    tag_135:\n        /* \"#utility.yul\":10306:10383   */\n      0x4e487b7100000000000000000000000000000000000000000000000000000000\n        /* \"#utility.yul\":10303:10304   */\n      0x00\n        /* \"#utility.yul\":10296:10384   */\n      mstore\n        /* \"#utility.yul\":10403:10407   */\n      0x11\n        /* \"#utility.yul\":10400:10401   */\n      0x04\n        /* \"#utility.yul\":10393:10408   */\n      mstore\n        /* \"#utility.yul\":10427:10431   */\n      0x24\n        /* \"#utility.yul\":10424:10425   */\n      0x00\n        /* \"#utility.yul\":10417:10432   */\n      revert\n        /* \"#utility.yul\":10444:10677   */\n    tag_81:\n        /* \"#utility.yul\":10483:10486   */\n      0x00\n        /* \"#utility.yul\":10506:10530   */\n      tag_245\n        /* \"#utility.yul\":10524:10529   */\n      dup3\n        /* \"#utility.yul\":10506:10530   */\n      tag_112\n      jump\t// in\n    tag_245:\n        /* \"#utility.yul\":10497:10530   */\n      swap2\n      pop\n        /* \"#utility.yul\":10552:10618   */\n      0xffffffffffffffffffffffffffffffffffffffffffffffffffffffffffffffff\n        /* \"#utility.yul\":10545:10550   */\n      dup3\n        /* \"#utility.yul\":10542:10619   */\n      eq\n        /* \"#utility.yul\":10539:10642   */\n      iszero\n      tag_246\n      jumpi\n        /* \"#utility.yul\":10622:10640   */\n      tag_247\n      tag_135\n      jump\t// in\n    tag_247:\n        /* \"#utility.yul\":10539:10642   */\n    tag_246:\n        /* \"#utility.yul\":10669:10670   */\n      0x01\n        /* \"#utility.yul\":10662:10667   */\n      dup3\n        /* \"#utility.yul\":10658:10671   */\n      add\n        /* \"#utility.yul\":10651:10671   */\n      swap1\n      pop\n        /* \"#utility.yul\":10444:10677   */\n      swap2\n      swap1\n      pop\n      jump\t// out\n        /* \"#utility.yul\":10683:11295   */\n    tag_87:\n        /* \"#utility.yul\":10866:10870   */\n      0x00\n        /* \"#utility.yul\":10904:10906   */\n      0x60\n        /* \"#utility.yul\":10893:10902   */\n      dup3\n        /* \"#utility.yul\":10889:10907   */\n      add\n        /* \"#utility.yul\":10881:10907   */\n      swap1\n      pop\n        /* \"#utility.yul\":10953:10962   */\n      dup2\n        /* \"#utility.yul\":10947:10951   */\n      dup2\n        /* \"#utility.yul\":10943:10963   */\n      sub\n        /* \"#utility.yul\":10939:10940   */\n      0x00\n        /* \"#utility.yul\":10928:10937   */\n      dup4\n        /* \"#utility.yul\":10924:10941   */\n      add\n        /* \"#utility.yul\":10917:10964   */\n      mstore\n        /* \"#utility.yul\":10981:11059   */\n      tag_249\n        /* \"#utility.yul\":11054:11058   */\n      dup2\n        /* \"#utility.yul\":11045:11051   */\n      dup7\n        /* \"#utility.yul\":10981:11059   */\n      tag_119\n      jump\t// in\n    tag_249:\n        /* \"#utility.yul\":10973:11059   */\n      swap1\n      pop\n        /* \"#utility.yul\":11106:11115   */\n      dup2\n        /* \"#utility.yul\":11100:11104   */\n      dup2\n        /* \"#utility.yul\":11096:11116   */\n      sub\n        /* \"#utility.yul\":11091:11093   */\n      0x20\n        /* \"#utility.yul\":11080:11089   */\n      dup4\n        /* \"#utility.yul\":11076:11094   */\n      add\n        /* \"#utility.yul\":11069:11117   */\n      mstore\n        /* \"#utility.yul\":11134:11212   */\n      tag_250\n        /* \"#utility.yul\":11207:11211   */\n      dup2\n        /* \"#utility.yul\":11198:11204   */\n      dup6\n        /* \"#utility.yul\":11134:11212   */\n      tag_119\n      jump\t// in\n    tag_250:\n        /* \"#utility.yul\":11126:11212   */\n      swap1\n      pop\n        /* \"#utility.yul\":11222:11288   */\n      tag_251\n        /* \"#utility.yul\":11284:11286   */\n      0x40\n        /* \"#utility.yul\":11273:11282   */\n      dup4\n        /* \"#utility.yul\":11269:11287   */\n      add\n        /* \"#utility.yul\":11260:11266   */\n      dup5\n        /* \"#utility.yul\":11222:11288   */\n      tag_122\n      jump\t// in\n    tag_251:\n        /* \"#utility.yul\":10683:11295   */\n      swap5\n      swap4\n      pop\n      pop\n      pop\n      pop\n      jump\t// out\n\n    auxdata: 0xa264697066735822122012297c647cfaab937ab26804770f58eae3e05919c1f804a85d5343c6166e88eb64736f6c634300080c0033\n}\n","bytecode":{"linkReferences":{},"object":"60806040523480156200001157600080fd5b5060405162001160380380620011608339818101604052810190620000379190620000e8565b806000806101000a81548173ffffffffffffffffffffffffffffffffffffffff021916908373ffffffffffffffffffffffffffffffffffffffff160217905550506200011a565b600080fd5b600073ffffffffffffffffffffffffffffffffffffffff82169050919050565b6000620000b08262000083565b9050919050565b620000c281620000a3565b8114620000ce57600080fd5b50565b600081519050620000e281620000b7565b92915050565b6000602082840312156200010157620001006200007e565b5b60006200011184828501620000d1565b91505092915050565b611036806200012a6000396000f3fe608060405234801561001057600080fd5b50600436106100885760003560e01c806396102cf41161005b57806396102cf414610118578063a54c7bdc14610149578063ae75aa6914610165578063fcc4a5101461018157610088565b806302d05d3f1461008d5780636ae17a3c146100ab5780638c2dccd1146100c75780638d977672146100e3575b600080fd5b61009561019d565b6040516100a291906109f3565b60405180910390f35b6100c560048036038101906100c09190610a58565b6101c1565b005b6100e160048036038101906100dc9190610a58565b610281565b005b6100fd60048036038101906100f89190610a58565b61037b565b60405161010f96959493929190610b48565b60405180910390f35b610132600480360381019061012d9190610a58565b610569565b604051610140929190610bbe565b60405180910390f35b610163600480360381019061015e9190610d23565b610622565b005b61017f600480360381019061017a9190610a58565b6107ae565b005b61019b60048036038101906101969190610dde565b6108a8565b005b60008054906101000a900473ffffffffffffffffffffffffffffffffffffffff1681565b60008054906101000a900473ffffffffffffffffffffffffffffffffffffffff1673ffffffffffffffffffffffffffffffffffffffff163373ffffffffffffffffffffffffffffffffffffffff161461024f576040517f08c379a000000000000000000000000000000000000000000000000000000000815260040161024690610e99565b60405180910390fd5b60006001600083815260200190815260200160002060000160006101000a81548160ff02191690831515021790555050565b60008054906101000a900473ffffffffffffffffffffffffffffffffffffffff1673ffffffffffffffffffffffffffffffffffffffff163373ffffffffffffffffffffffffffffffffffffffff161461030f576040517f08c379a000000000000000000000000000000000000000000000000000000000815260040161030690610e99565b60405180910390fd5b60006002600083815260200190815260200160002060040160006101000a81548160ff0219169083151502179055507f572597a6891de3ffc5ddb25adeb4871a3bf451676410ca50eed9524c49bdc0e6816001604051610370929190610eb9565b60405180910390a150565b600260205280600052604060002060009150905080600001805461039e90610f11565b80601f01602080910402602001604051908101604052809291908181526020018280546103ca90610f11565b80156104175780601f106103ec57610100808354040283529160200191610417565b820191906000526020600020905b8154815290600101906020018083116103fa57829003601f168201915b50505050509080600101549080600201805461043290610f11565b80601f016020809104026020016040519081016040528092919081815260200182805461045e90610f11565b80156104ab5780601f10610480576101008083540402835291602001916104ab565b820191906000526020600020905b81548152906001019060200180831161048e57829003601f168201915b5050505050908060030180546104c090610f11565b80601f01602080910402602001604051908101604052809291908181526020018280546104ec90610f11565b80156105395780601f1061050e57610100808354040283529160200191610539565b820191906000526020600020905b81548152906001019060200180831161051c57829003601f168201915b5050505050908060040160009054906101000a900460ff16908060040160019054906101000a900460ff16905086565b60016020528060005260406000206000915090508060000160009054906101000a900460ff169080600101805461059f90610f11565b80601f01602080910402602001604051908101604052809291908181526020018280546105cb90610f11565b80156106185780601f106105ed57610100808354040283529160200191610618565b820191906000526020600020905b8154815290600101906020018083116105fb57829003601f168201915b5050505050905082565b60008054906101000a900473ffffffffffffffffffffffffffffffffffffffff1673ffffffffffffffffffffffffffffffffffffffff163373ffffffffffffffffffffffffffffffffffffffff16146106b0576040517f08c379a00000000000000000000000000000000000000000000000000000000081526004016106a790610e99565b60405180910390fd5b600060026000600460008154809291906106c990610f72565b9190505581526020019081526020016000209050848160000190805190602001906106f592919061090f565b508381600201908051906020019061070e92919061090f565b508181600101819055508281600301908051906020019061073092919061090f565b5060018160040160006101000a81548160ff02191690831515021790555060008160040160016101000a81548160ff0219169083151502179055507f90a81dfba7e5e8cd7c491e74e4b46b97180ae5cf5e9889b944bd72f8369ba07d8585600160405161079f93929190610fbb565b60405180910390a15050505050565b60008054906101000a900473ffffffffffffffffffffffffffffffffffffffff1673ffffffffffffffffffffffffffffffffffffffff163373ffffffffffffffffffffffffffffffffffffffff161461083c576040517f08c379a000000000000000000000000000000000000000000000000000000000815260040161083390610e99565b60405180910390fd5b60016002600083815260200190815260200160002060040160016101000a81548160ff0219169083151502179055507fe21fa966ca5cd02748c0752352d18c48165e61cb55b4c29cccf924b5a95fcff181600160405161089d929190610eb9565b60405180910390a150565b600060016000600360008154809291906108c190610f72565b9190505581526020019081526020016000209050818160010190805190602001906108ed92919061090f565b5060018160000160006101000a81548160ff0219169083151502179055505050565b82805461091b90610f11565b90600052602060002090601f01602090048101928261093d5760008555610984565b82601f1061095657805160ff1916838001178555610984565b82800160010185558215610984579182015b82811115610983578251825591602001919060010190610968565b5b5090506109919190610995565b5090565b5b808211156109ae576000816000905550600101610996565b5090565b600073ffffffffffffffffffffffffffffffffffffffff82169050919050565b60006109dd826109b2565b9050919050565b6109ed816109d2565b82525050565b6000602082019050610a0860008301846109e4565b92915050565b6000604051905090565b600080fd5b600080fd5b6000819050919050565b610a3581610a22565b8114610a4057600080fd5b50565b600081359050610a5281610a2c565b92915050565b600060208284031215610a6e57610a6d610a18565b5b6000610a7c84828501610a43565b91505092915050565b600081519050919050565b600082825260208201905092915050565b60005b83811015610abf578082015181840152602081019050610aa4565b83811115610ace576000848401525b50505050565b6000601f19601f8301169050919050565b6000610af082610a85565b610afa8185610a90565b9350610b0a818560208601610aa1565b610b1381610ad4565b840191505092915050565b610b2781610a22565b82525050565b60008115159050919050565b610b4281610b2d565b82525050565b600060c0820190508181036000830152610b628189610ae5565b9050610b716020830188610b1e565b8181036040830152610b838187610ae5565b90508181036060830152610b978186610ae5565b9050610ba66080830185610b39565b610bb360a0830184610b39565b979650505050505050565b6000604082019050610bd36000830185610b39565b8181036020830152610be58184610ae5565b90509392505050565b600080fd5b600080fd5b7f4e487b7100000000000000000000000000000000000000000000000000000000600052604160045260246000fd5b610c3082610ad4565b810181811067ffffffffffffffff82111715610c4f57610c4e610bf8565b5b80604052505050565b6000610c62610a0e565b9050610c6e8282610c27565b919050565b600067ffffffffffffffff821115610c8e57610c8d610bf8565b5b610c9782610ad4565b9050602081019050919050565b82818337600083830152505050565b6000610cc6610cc184610c73565b610c58565b905082815260208101848484011115610ce257610ce1610bf3565b5b610ced848285610ca4565b509392505050565b600082601f830112610d0a57610d09610bee565b5b8135610d1a848260208601610cb3565b91505092915050565b60008060008060808587031215610d3d57610d3c610a18565b5b600085013567ffffffffffffffff811115610d5b57610d5a610a1d565b5b610d6787828801610cf5565b945050602085013567ffffffffffffffff811115610d8857610d87610a1d565b5b610d9487828801610cf5565b935050604085013567ffffffffffffffff811115610db557610db4610a1d565b5b610dc187828801610cf5565b9250506060610dd287828801610a43565b91505092959194509250565b600060208284031215610df457610df3610a18565b5b600082013567ffffffffffffffff811115610e1257610e11610a1d565b5b610e1e84828501610cf5565b91505092915050565b7f596f7520646964206e6f7420637265617465207468697320746f20646f206c6960008201527f7374000000000000000000000000000000000000000000000000000000000000602082015250565b6000610e83602283610a90565b9150610e8e82610e27565b604082019050919050565b60006020820190508181036000830152610eb281610e76565b9050919050565b6000604082019050610ece6000830185610b1e565b610edb6020830184610b39565b9392505050565b7f4e487b7100000000000000000000000000000000000000000000000000000000600052602260045260246000fd5b60006002820490506001821680610f2957607f821691505b60208210811415610f3d57610f3c610ee2565b5b50919050565b7f4e487b7100000000000000000000000000000000000000000000000000000000600052601160045260246000fd5b6000610f7d82610a22565b91507fffffffffffffffffffffffffffffffffffffffffffffffffffffffffffffffff821415610fb057610faf610f43565b5b600182019050919050565b60006060820190508181036000830152610fd58186610ae5565b90508181036020830152610fe98185610ae5565b9050610ff86040830184610b39565b94935050505056fea264697066735822122012297c647cfaab937ab26804770f58eae3e05919c1f804a85d5343c6166e88eb64736f6c634300080c0033","opcodes":"PUSH1 0x80 PUSH1 0x40 MSTORE CALLVALUE DUP1 ISZERO PUSH3 0x11 JUMPI PUSH1 0x0 DUP1 REVERT JUMPDEST POP PUSH1 0x40 MLOAD PUSH3 0x1160 CODESIZE SUB DUP1 PUSH3 0x1160 DUP4 CODECOPY DUP2 DUP2 ADD PUSH1 0x40 MSTORE DUP2 ADD SWAP1 PUSH3 0x37 SWAP2 SWAP1 PUSH3 0xE8 JUMP JUMPDEST DUP1 PUSH1 0x0 DUP1 PUSH2 0x100 EXP DUP2 SLOAD DUP2 PUSH20 0xFFFFFFFFFFFFFFFFFFFFFFFFFFFFFFFFFFFFFFFF MUL NOT AND SWAP1 DUP4 PUSH20 0xFFFFFFFFFFFFFFFFFFFFFFFFFFFFFFFFFFFFFFFF AND MUL OR SWAP1 SSTORE POP POP PUSH3 0x11A JUMP JUMPDEST PUSH1 0x0 DUP1 REVERT JUMPDEST PUSH1 0x0 PUSH20 0xFFFFFFFFFFFFFFFFFFFFFFFFFFFFFFFFFFFFFFFF DUP3 AND SWAP1 POP SWAP2 SWAP1 POP JUMP JUMPDEST PUSH1 0x0 PUSH3 0xB0 DUP3 PUSH3 0x83 JUMP JUMPDEST SWAP1 POP SWAP2 SWAP1 POP JUMP JUMPDEST PUSH3 0xC2 DUP2 PUSH3 0xA3 JUMP JUMPDEST DUP2 EQ PUSH3 0xCE JUMPI PUSH1 0x0 DUP1 REVERT JUMPDEST POP JUMP JUMPDEST PUSH1 0x0 DUP2 MLOAD SWAP1 POP PUSH3 0xE2 DUP2 PUSH3 0xB7 JUMP JUMPDEST SWAP3 SWAP2 POP POP JUMP JUMPDEST PUSH1 0x0 PUSH1 0x20 DUP3 DUP5 SUB SLT ISZERO PUSH3 0x101 JUMPI PUSH3 0x100 PUSH3 0x7E JUMP JUMPDEST JUMPDEST PUSH1 0x0 PUSH3 0x111 DUP5 DUP3 DUP6 ADD PUSH3 0xD1 JUMP JUMPDEST SWAP2 POP POP SWAP3 SWAP2 POP POP JUMP JUMPDEST PUSH2 0x1036 DUP1 PUSH3 0x12A PUSH1 0x0 CODECOPY PUSH1 0x0 RETURN INVALID PUSH1 0x80 PUSH1 0x40 MSTORE CALLVALUE DUP1 ISZERO PUSH2 0x10 JUMPI PUSH1 0x0 DUP1 REVERT JUMPDEST POP PUSH1 0x4 CALLDATASIZE LT PUSH2 0x88 JUMPI PUSH1 0x0 CALLDATALOAD PUSH1 0xE0 SHR DUP1 PUSH4 0x96102CF4 GT PUSH2 0x5B JUMPI DUP1 PUSH4 0x96102CF4 EQ PUSH2 0x118 JUMPI DUP1 PUSH4 0xA54C7BDC EQ PUSH2 0x149 JUMPI DUP1 PUSH4 0xAE75AA69 EQ PUSH2 0x165 JUMPI DUP1 PUSH4 0xFCC4A510 EQ PUSH2 0x181 JUMPI PUSH2 0x88 JUMP JUMPDEST DUP1 PUSH4 0x2D05D3F EQ PUSH2 0x8D JUMPI DUP1 PUSH4 0x6AE17A3C EQ PUSH2 0xAB JUMPI DUP1 PUSH4 0x8C2DCCD1 EQ PUSH2 0xC7 JUMPI DUP1 PUSH4 0x8D977672 EQ PUSH2 0xE3 JUMPI JUMPDEST PUSH1 0x0 DUP1 REVERT JUMPDEST PUSH2 0x95 PUSH2 0x19D JUMP JUMPDEST PUSH1 0x40 MLOAD PUSH2 0xA2 SWAP2 SWAP1 PUSH2 0x9F3 JUMP JUMPDEST PUSH1 0x40 MLOAD DUP1 SWAP2 SUB SWAP1 RETURN JUMPDEST PUSH2 0xC5 PUSH1 0x4 DUP1 CALLDATASIZE SUB DUP2 ADD SWAP1 PUSH2 0xC0 SWAP2 SWAP1 PUSH2 0xA58 JUMP JUMPDEST PUSH2 0x1C1 JUMP JUMPDEST STOP JUMPDEST PUSH2 0xE1 PUSH1 0x4 DUP1 CALLDATASIZE SUB DUP2 ADD SWAP1 PUSH2 0xDC SWAP2 SWAP1 PUSH2 0xA58 JUMP JUMPDEST PUSH2 0x281 JUMP JUMPDEST STOP JUMPDEST PUSH2 0xFD PUSH1 0x4 DUP1 CALLDATASIZE SUB DUP2 ADD SWAP1 PUSH2 0xF8 SWAP2 SWAP1 PUSH2 0xA58 JUMP JUMPDEST PUSH2 0x37B JUMP JUMPDEST PUSH1 0x40 MLOAD PUSH2 0x10F SWAP7 SWAP6 SWAP5 SWAP4 SWAP3 SWAP2 SWAP1 PUSH2 0xB48 JUMP JUMPDEST PUSH1 0x40 MLOAD DUP1 SWAP2 SUB SWAP1 RETURN JUMPDEST PUSH2 0x132 PUSH1 0x4 DUP1 CALLDATASIZE SUB DUP2 ADD SWAP1 PUSH2 0x12D SWAP2 SWAP1 PUSH2 0xA58 JUMP JUMPDEST PUSH2 0x569 JUMP JUMPDEST PUSH1 0x40 MLOAD PUSH2 0x140 SWAP3 SWAP2 SWAP1 PUSH2 0xBBE JUMP JUMPDEST PUSH1 0x40 MLOAD DUP1 SWAP2 SUB SWAP1 RETURN JUMPDEST PUSH2 0x163 PUSH1 0x4 DUP1 CALLDATASIZE SUB DUP2 ADD SWAP1 PUSH2 0x15E SWAP2 SWAP1 PUSH2 0xD23 JUMP JUMPDEST PUSH2 0x622 JUMP JUMPDEST STOP JUMPDEST PUSH2 0x17F PUSH1 0x4 DUP1 CALLDATASIZE SUB DUP2 ADD SWAP1 PUSH2 0x17A SWAP2 SWAP1 PUSH2 0xA58 JUMP JUMPDEST PUSH2 0x7AE JUMP JUMPDEST STOP JUMPDEST PUSH2 0x19B PUSH1 0x4 DUP1 CALLDATASIZE SUB DUP2 ADD SWAP1 PUSH2 0x196 SWAP2 SWAP1 PUSH2 0xDDE JUMP JUMPDEST PUSH2 0x8A8 JUMP JUMPDEST STOP JUMPDEST PUSH1 0x0 DUP1 SLOAD SWAP1 PUSH2 0x100 EXP SWAP1 DIV PUSH20 0xFFFFFFFFFFFFFFFFFFFFFFFFFFFFFFFFFFFFFFFF AND DUP2 JUMP JUMPDEST PUSH1 0x0 DUP1 SLOAD SWAP1 PUSH2 0x100 EXP SWAP1 DIV PUSH20 0xFFFFFFFFFFFFFFFFFFFFFFFFFFFFFFFFFFFFFFFF AND PUSH20 0xFFFFFFFFFFFFFFFFFFFFFFFFFFFFFFFFFFFFFFFF AND CALLER PUSH20 0xFFFFFFFFFFFFFFFFFFFFFFFFFFFFFFFFFFFFFFFF AND EQ PUSH2 0x24F JUMPI PUSH1 0x40 MLOAD PUSH32 0x8C379A000000000000000000000000000000000000000000000000000000000 DUP2 MSTORE PUSH1 0x4 ADD PUSH2 0x246 SWAP1 PUSH2 0xE99 JUMP JUMPDEST PUSH1 0x40 MLOAD DUP1 SWAP2 SUB SWAP1 REVERT JUMPDEST PUSH1 0x0 PUSH1 0x1 PUSH1 0x0 DUP4 DUP2 MSTORE PUSH1 0x20 ADD SWAP1 DUP2 MSTORE PUSH1 0x20 ADD PUSH1 0x0 KECCAK256 PUSH1 0x0 ADD PUSH1 0x0 PUSH2 0x100 EXP DUP2 SLOAD DUP2 PUSH1 0xFF MUL NOT AND SWAP1 DUP4 ISZERO ISZERO MUL OR SWAP1 SSTORE POP POP JUMP JUMPDEST PUSH1 0x0 DUP1 SLOAD SWAP1 PUSH2 0x100 EXP SWAP1 DIV PUSH20 0xFFFFFFFFFFFFFFFFFFFFFFFFFFFFFFFFFFFFFFFF AND PUSH20 0xFFFFFFFFFFFFFFFFFFFFFFFFFFFFFFFFFFFFFFFF AND CALLER PUSH20 0xFFFFFFFFFFFFFFFFFFFFFFFFFFFFFFFFFFFFFFFF AND EQ PUSH2 0x30F JUMPI PUSH1 0x40 MLOAD PUSH32 0x8C379A000000000000000000000000000000000000000000000000000000000 DUP2 MSTORE PUSH1 0x4 ADD PUSH2 0x306 SWAP1 PUSH2 0xE99 JUMP JUMPDEST PUSH1 0x40 MLOAD DUP1 SWAP2 SUB SWAP1 REVERT JUMPDEST PUSH1 0x0 PUSH1 0x2 PUSH1 0x0 DUP4 DUP2 MSTORE PUSH1 0x20 ADD SWAP1 DUP2 MSTORE PUSH1 0x20 ADD PUSH1 0x0 KECCAK256 PUSH1 0x4 ADD PUSH1 0x0 PUSH2 0x100 EXP DUP2 SLOAD DUP2 PUSH1 0xFF MUL NOT AND SWAP1 DUP4 ISZERO ISZERO MUL OR SWAP1 SSTORE POP PUSH32 0x572597A6891DE3FFC5DDB25ADEB4871A3BF451676410CA50EED9524C49BDC0E6 DUP2 PUSH1 0x1 PUSH1 0x40 MLOAD PUSH2 0x370 SWAP3 SWAP2 SWAP1 PUSH2 0xEB9 JUMP JUMPDEST PUSH1 0x40 MLOAD DUP1 SWAP2 SUB SWAP1 LOG1 POP JUMP JUMPDEST PUSH1 0x2 PUSH1 0x20 MSTORE DUP1 PUSH1 0x0 MSTORE PUSH1 0x40 PUSH1 0x0 KECCAK256 PUSH1 0x0 SWAP2 POP SWAP1 POP DUP1 PUSH1 0x0 ADD DUP1 SLOAD PUSH2 0x39E SWAP1 PUSH2 0xF11 JUMP JUMPDEST DUP1 PUSH1 0x1F ADD PUSH1 0x20 DUP1 SWAP2 DIV MUL PUSH1 0x20 ADD PUSH1 0x40 MLOAD SWAP1 DUP2 ADD PUSH1 0x40 MSTORE DUP1 SWAP3 SWAP2 SWAP1 DUP2 DUP2 MSTORE PUSH1 0x20 ADD DUP3 DUP1 SLOAD PUSH2 0x3CA SWAP1 PUSH2 0xF11 JUMP JUMPDEST DUP1 ISZERO PUSH2 0x417 JUMPI DUP1 PUSH1 0x1F LT PUSH2 0x3EC JUMPI PUSH2 0x100 DUP1 DUP4 SLOAD DIV MUL DUP4 MSTORE SWAP2 PUSH1 0x20 ADD SWAP2 PUSH2 0x417 JUMP JUMPDEST DUP3 ADD SWAP2 SWAP1 PUSH1 0x0 MSTORE PUSH1 0x20 PUSH1 0x0 KECCAK256 SWAP1 JUMPDEST DUP2 SLOAD DUP2 MSTORE SWAP1 PUSH1 0x1 ADD SWAP1 PUSH1 0x20 ADD DUP1 DUP4 GT PUSH2 0x3FA JUMPI DUP3 SWAP1 SUB PUSH1 0x1F AND DUP3 ADD SWAP2 JUMPDEST POP POP POP POP POP SWAP1 DUP1 PUSH1 0x1 ADD SLOAD SWAP1 DUP1 PUSH1 0x2 ADD DUP1 SLOAD PUSH2 0x432 SWAP1 PUSH2 0xF11 JUMP JUMPDEST DUP1 PUSH1 0x1F ADD PUSH1 0x20 DUP1 SWAP2 DIV MUL PUSH1 0x20 ADD PUSH1 0x40 MLOAD SWAP1 DUP2 ADD PUSH1 0x40 MSTORE DUP1 SWAP3 SWAP2 SWAP1 DUP2 DUP2 MSTORE PUSH1 0x20 ADD DUP3 DUP1 SLOAD PUSH2 0x45E SWAP1 PUSH2 0xF11 JUMP JUMPDEST DUP1 ISZERO PUSH2 0x4AB JUMPI DUP1 PUSH1 0x1F LT PUSH2 0x480 JUMPI PUSH2 0x100 DUP1 DUP4 SLOAD DIV MUL DUP4 MSTORE SWAP2 PUSH1 0x20 ADD SWAP2 PUSH2 0x4AB JUMP JUMPDEST DUP3 ADD SWAP2 SWAP1 PUSH1 0x0 MSTORE PUSH1 0x20 PUSH1 0x0 KECCAK256 SWAP1 JUMPDEST DUP2 SLOAD DUP2 MSTORE SWAP1 PUSH1 0x1 ADD SWAP1 PUSH1 0x20 ADD DUP1 DUP4 GT PUSH2 0x48E JUMPI DUP3 SWAP1 SUB PUSH1 0x1F AND DUP3 ADD SWAP2 JUMPDEST POP POP POP POP POP SWAP1 DUP1 PUSH1 0x3 ADD DUP1 SLOAD PUSH2 0x4C0 SWAP1 PUSH2 0xF11 JUMP JUMPDEST DUP1 PUSH1 0x1F ADD PUSH1 0x20 DUP1 SWAP2 DIV MUL PUSH1 0x20 ADD PUSH1 0x40 MLOAD SWAP1 DUP2 ADD PUSH1 0x40 MSTORE DUP1 SWAP3 SWAP2 SWAP1 DUP2 DUP2 MSTORE PUSH1 0x20 ADD DUP3 DUP1 SLOAD PUSH2 0x4EC SWAP1 PUSH2 0xF11 JUMP JUMPDEST DUP1 ISZERO PUSH2 0x539 JUMPI DUP1 PUSH1 0x1F LT PUSH2 0x50E JUMPI PUSH2 0x100 DUP1 DUP4 SLOAD DIV MUL DUP4 MSTORE SWAP2 PUSH1 0x20 ADD SWAP2 PUSH2 0x539 JUMP JUMPDEST DUP3 ADD SWAP2 SWAP1 PUSH1 0x0 MSTORE PUSH1 0x20 PUSH1 0x0 KECCAK256 SWAP1 JUMPDEST DUP2 SLOAD DUP2 MSTORE SWAP1 PUSH1 0x1 ADD SWAP1 PUSH1 0x20 ADD DUP1 DUP4 GT PUSH2 0x51C JUMPI DUP3 SWAP1 SUB PUSH1 0x1F AND DUP3 ADD SWAP2 JUMPDEST POP POP POP POP POP SWAP1 DUP1 PUSH1 0x4 ADD PUSH1 0x0 SWAP1 SLOAD SWAP1 PUSH2 0x100 EXP SWAP1 DIV PUSH1 0xFF AND SWAP1 DUP1 PUSH1 0x4 ADD PUSH1 0x1 SWAP1 SLOAD SWAP1 PUSH2 0x100 EXP SWAP1 DIV PUSH1 0xFF AND SWAP1 POP DUP7 JUMP JUMPDEST PUSH1 0x1 PUSH1 0x20 MSTORE DUP1 PUSH1 0x0 MSTORE PUSH1 0x40 PUSH1 0x0 KECCAK256 PUSH1 0x0 SWAP2 POP SWAP1 POP DUP1 PUSH1 0x0 ADD PUSH1 0x0 SWAP1 SLOAD SWAP1 PUSH2 0x100 EXP SWAP1 DIV PUSH1 0xFF AND SWAP1 DUP1 PUSH1 0x1 ADD DUP1 SLOAD PUSH2 0x59F SWAP1 PUSH2 0xF11 JUMP JUMPDEST DUP1 PUSH1 0x1F ADD PUSH1 0x20 DUP1 SWAP2 DIV MUL PUSH1 0x20 ADD PUSH1 0x40 MLOAD SWAP1 DUP2 ADD PUSH1 0x40 MSTORE DUP1 SWAP3 SWAP2 SWAP1 DUP2 DUP2 MSTORE PUSH1 0x20 ADD DUP3 DUP1 SLOAD PUSH2 0x5CB SWAP1 PUSH2 0xF11 JUMP JUMPDEST DUP1 ISZERO PUSH2 0x618 JUMPI DUP1 PUSH1 0x1F LT PUSH2 0x5ED JUMPI PUSH2 0x100 DUP1 DUP4 SLOAD DIV MUL DUP4 MSTORE SWAP2 PUSH1 0x20 ADD SWAP2 PUSH2 0x618 JUMP JUMPDEST DUP3 ADD SWAP2 SWAP1 PUSH1 0x0 MSTORE PUSH1 0x20 PUSH1 0x0 KECCAK256 SWAP1 JUMPDEST DUP2 SLOAD DUP2 MSTORE SWAP1 PUSH1 0x1 ADD SWAP1 PUSH1 0x20 ADD DUP1 DUP4 GT PUSH2 0x5FB JUMPI DUP3 SWAP1 SUB PUSH1 0x1F AND DUP3 ADD SWAP2 JUMPDEST POP POP POP POP POP SWAP1 POP DUP3 JUMP JUMPDEST PUSH1 0x0 DUP1 SLOAD SWAP1 PUSH2 0x100 EXP SWAP1 DIV PUSH20 0xFFFFFFFFFFFFFFFFFFFFFFFFFFFFFFFFFFFFFFFF AND PUSH20 0xFFFFFFFFFFFFFFFFFFFFFFFFFFFFFFFFFFFFFFFF AND CALLER PUSH20 0xFFFFFFFFFFFFFFFFFFFFFFFFFFFFFFFFFFFFFFFF AND EQ PUSH2 0x6B0 JUMPI PUSH1 0x40 MLOAD PUSH32 0x8C379A000000000000000000000000000000000000000000000000000000000 DUP2 MSTORE PUSH1 0x4 ADD PUSH2 0x6A7 SWAP1 PUSH2 0xE99 JUMP JUMPDEST PUSH1 0x40 MLOAD DUP1 SWAP2 SUB SWAP1 REVERT JUMPDEST PUSH1 0x0 PUSH1 0x2 PUSH1 0x0 PUSH1 0x4 PUSH1 0x0 DUP2 SLOAD DUP1 SWAP3 SWAP2 SWAP1 PUSH2 0x6C9 SWAP1 PUSH2 0xF72 JUMP JUMPDEST SWAP2 SWAP1 POP SSTORE DUP2 MSTORE PUSH1 0x20 ADD SWAP1 DUP2 MSTORE PUSH1 0x20 ADD PUSH1 0x0 KECCAK256 SWAP1 POP DUP5 DUP2 PUSH1 0x0 ADD SWAP1 DUP1 MLOAD SWAP1 PUSH1 0x20 ADD SWAP1 PUSH2 0x6F5 SWAP3 SWAP2 SWAP1 PUSH2 0x90F JUMP JUMPDEST POP DUP4 DUP2 PUSH1 0x2 ADD SWAP1 DUP1 MLOAD SWAP1 PUSH1 0x20 ADD SWAP1 PUSH2 0x70E SWAP3 SWAP2 SWAP1 PUSH2 0x90F JUMP JUMPDEST POP DUP2 DUP2 PUSH1 0x1 ADD DUP2 SWAP1 SSTORE POP DUP3 DUP2 PUSH1 0x3 ADD SWAP1 DUP1 MLOAD SWAP1 PUSH1 0x20 ADD SWAP1 PUSH2 0x730 SWAP3 SWAP2 SWAP1 PUSH2 0x90F JUMP JUMPDEST POP PUSH1 0x1 DUP2 PUSH1 0x4 ADD PUSH1 0x0 PUSH2 0x100 EXP DUP2 SLOAD DUP2 PUSH1 0xFF MUL NOT AND SWAP1 DUP4 ISZERO ISZERO MUL OR SWAP1 SSTORE POP PUSH1 0x0 DUP2 PUSH1 0x4 ADD PUSH1 0x1 PUSH2 0x100 EXP DUP2 SLOAD DUP2 PUSH1 0xFF MUL NOT AND SWAP1 DUP4 ISZERO ISZERO MUL OR SWAP1 SSTORE POP PUSH32 0x90A81DFBA7E5E8CD7C491E74E4B46B97180AE5CF5E9889B944BD72F8369BA07D DUP6 DUP6 PUSH1 0x1 PUSH1 0x40 MLOAD PUSH2 0x79F SWAP4 SWAP3 SWAP2 SWAP1 PUSH2 0xFBB JUMP JUMPDEST PUSH1 0x40 MLOAD DUP1 SWAP2 SUB SWAP1 LOG1 POP POP POP POP POP JUMP JUMPDEST PUSH1 0x0 DUP1 SLOAD SWAP1 PUSH2 0x100 EXP SWAP1 DIV PUSH20 0xFFFFFFFFFFFFFFFFFFFFFFFFFFFFFFFFFFFFFFFF AND PUSH20 0xFFFFFFFFFFFFFFFFFFFFFFFFFFFFFFFFFFFFFFFF AND CALLER PUSH20 0xFFFFFFFFFFFFFFFFFFFFFFFFFFFFFFFFFFFFFFFF AND EQ PUSH2 0x83C JUMPI PUSH1 0x40 MLOAD PUSH32 0x8C379A000000000000000000000000000000000000000000000000000000000 DUP2 MSTORE PUSH1 0x4 ADD PUSH2 0x833 SWAP1 PUSH2 0xE99 JUMP JUMPDEST PUSH1 0x40 MLOAD DUP1 SWAP2 SUB SWAP1 REVERT JUMPDEST PUSH1 0x1 PUSH1 0x2 PUSH1 0x0 DUP4 DUP2 MSTORE PUSH1 0x20 ADD SWAP1 DUP2 MSTORE PUSH1 0x20 ADD PUSH1 0x0 KECCAK256 PUSH1 0x4 ADD PUSH1 0x1 PUSH2 0x100 EXP DUP2 SLOAD DUP2 PUSH1 0xFF MUL NOT AND SWAP1 DUP4 ISZERO ISZERO MUL OR SWAP1 SSTORE POP PUSH32 0xE21FA966CA5CD02748C0752352D18C48165E61CB55B4C29CCCF924B5A95FCFF1 DUP2 PUSH1 0x1 PUSH1 0x40 MLOAD PUSH2 0x89D SWAP3 SWAP2 SWAP1 PUSH2 0xEB9 JUMP JUMPDEST PUSH1 0x40 MLOAD DUP1 SWAP2 SUB SWAP1 LOG1 POP JUMP JUMPDEST PUSH1 0x0 PUSH1 0x1 PUSH1 0x0 PUSH1 0x3 PUSH1 0x0 DUP2 SLOAD DUP1 SWAP3 SWAP2 SWAP1 PUSH2 0x8C1 SWAP1 PUSH2 0xF72 JUMP JUMPDEST SWAP2 SWAP1 POP SSTORE DUP2 MSTORE PUSH1 0x20 ADD SWAP1 DUP2 MSTORE PUSH1 0x20 ADD PUSH1 0x0 KECCAK256 SWAP1 POP DUP2 DUP2 PUSH1 0x1 ADD SWAP1 DUP1 MLOAD SWAP1 PUSH1 0x20 ADD SWAP1 PUSH2 0x8ED SWAP3 SWAP2 SWAP1 PUSH2 0x90F JUMP JUMPDEST POP PUSH1 0x1 DUP2 PUSH1 0x0 ADD PUSH1 0x0 PUSH2 0x100 EXP DUP2 SLOAD DUP2 PUSH1 0xFF MUL NOT AND SWAP1 DUP4 ISZERO ISZERO MUL OR SWAP1 SSTORE POP POP POP JUMP JUMPDEST DUP3 DUP1 SLOAD PUSH2 0x91B SWAP1 PUSH2 0xF11 JUMP JUMPDEST SWAP1 PUSH1 0x0 MSTORE PUSH1 0x20 PUSH1 0x0 KECCAK256 SWAP1 PUSH1 0x1F ADD PUSH1 0x20 SWAP1 DIV DUP2 ADD SWAP3 DUP3 PUSH2 0x93D JUMPI PUSH1 0x0 DUP6 SSTORE PUSH2 0x984 JUMP JUMPDEST DUP3 PUSH1 0x1F LT PUSH2 0x956 JUMPI DUP1 MLOAD PUSH1 0xFF NOT AND DUP4 DUP1 ADD OR DUP6 SSTORE PUSH2 0x984 JUMP JUMPDEST DUP3 DUP1 ADD PUSH1 0x1 ADD DUP6 SSTORE DUP3 ISZERO PUSH2 0x984 JUMPI SWAP2 DUP3 ADD JUMPDEST DUP3 DUP2 GT ISZERO PUSH2 0x983 JUMPI DUP3 MLOAD DUP3 SSTORE SWAP2 PUSH1 0x20 ADD SWAP2 SWAP1 PUSH1 0x1 ADD SWAP1 PUSH2 0x968 JUMP JUMPDEST JUMPDEST POP SWAP1 POP PUSH2 0x991 SWAP2 SWAP1 PUSH2 0x995 JUMP JUMPDEST POP SWAP1 JUMP JUMPDEST JUMPDEST DUP1 DUP3 GT ISZERO PUSH2 0x9AE JUMPI PUSH1 0x0 DUP2 PUSH1 0x0 SWAP1 SSTORE POP PUSH1 0x1 ADD PUSH2 0x996 JUMP JUMPDEST POP SWAP1 JUMP JUMPDEST PUSH1 0x0 PUSH20 0xFFFFFFFFFFFFFFFFFFFFFFFFFFFFFFFFFFFFFFFF DUP3 AND SWAP1 POP SWAP2 SWAP1 POP JUMP JUMPDEST PUSH1 0x0 PUSH2 0x9DD DUP3 PUSH2 0x9B2 JUMP JUMPDEST SWAP1 POP SWAP2 SWAP1 POP JUMP JUMPDEST PUSH2 0x9ED DUP2 PUSH2 0x9D2 JUMP JUMPDEST DUP3 MSTORE POP POP JUMP JUMPDEST PUSH1 0x0 PUSH1 0x20 DUP3 ADD SWAP1 POP PUSH2 0xA08 PUSH1 0x0 DUP4 ADD DUP5 PUSH2 0x9E4 JUMP JUMPDEST SWAP3 SWAP2 POP POP JUMP JUMPDEST PUSH1 0x0 PUSH1 0x40 MLOAD SWAP1 POP SWAP1 JUMP JUMPDEST PUSH1 0x0 DUP1 REVERT JUMPDEST PUSH1 0x0 DUP1 REVERT JUMPDEST PUSH1 0x0 DUP2 SWAP1 POP SWAP2 SWAP1 POP JUMP JUMPDEST PUSH2 0xA35 DUP2 PUSH2 0xA22 JUMP JUMPDEST DUP2 EQ PUSH2 0xA40 JUMPI PUSH1 0x0 DUP1 REVERT JUMPDEST POP JUMP JUMPDEST PUSH1 0x0 DUP2 CALLDATALOAD SWAP1 POP PUSH2 0xA52 DUP2 PUSH2 0xA2C JUMP JUMPDEST SWAP3 SWAP2 POP POP JUMP JUMPDEST PUSH1 0x0 PUSH1 0x20 DUP3 DUP5 SUB SLT ISZERO PUSH2 0xA6E JUMPI PUSH2 0xA6D PUSH2 0xA18 JUMP JUMPDEST JUMPDEST PUSH1 0x0 PUSH2 0xA7C DUP5 DUP3 DUP6 ADD PUSH2 0xA43 JUMP JUMPDEST SWAP2 POP POP SWAP3 SWAP2 POP POP JUMP JUMPDEST PUSH1 0x0 DUP2 MLOAD SWAP1 POP SWAP2 SWAP1 POP JUMP JUMPDEST PUSH1 0x0 DUP3 DUP3 MSTORE PUSH1 0x20 DUP3 ADD SWAP1 POP SWAP3 SWAP2 POP POP JUMP JUMPDEST PUSH1 0x0 JUMPDEST DUP4 DUP2 LT ISZERO PUSH2 0xABF JUMPI DUP1 DUP3 ADD MLOAD DUP2 DUP5 ADD MSTORE PUSH1 0x20 DUP2 ADD SWAP1 POP PUSH2 0xAA4 JUMP JUMPDEST DUP4 DUP2 GT ISZERO PUSH2 0xACE JUMPI PUSH1 0x0 DUP5 DUP5 ADD MSTORE JUMPDEST POP POP POP POP JUMP JUMPDEST PUSH1 0x0 PUSH1 0x1F NOT PUSH1 0x1F DUP4 ADD AND SWAP1 POP SWAP2 SWAP1 POP JUMP JUMPDEST PUSH1 0x0 PUSH2 0xAF0 DUP3 PUSH2 0xA85 JUMP JUMPDEST PUSH2 0xAFA DUP2 DUP6 PUSH2 0xA90 JUMP JUMPDEST SWAP4 POP PUSH2 0xB0A DUP2 DUP6 PUSH1 0x20 DUP7 ADD PUSH2 0xAA1 JUMP JUMPDEST PUSH2 0xB13 DUP2 PUSH2 0xAD4 JUMP JUMPDEST DUP5 ADD SWAP2 POP POP SWAP3 SWAP2 POP POP JUMP JUMPDEST PUSH2 0xB27 DUP2 PUSH2 0xA22 JUMP JUMPDEST DUP3 MSTORE POP POP JUMP JUMPDEST PUSH1 0x0 DUP2 ISZERO ISZERO SWAP1 POP SWAP2 SWAP1 POP JUMP JUMPDEST PUSH2 0xB42 DUP2 PUSH2 0xB2D JUMP JUMPDEST DUP3 MSTORE POP POP JUMP JUMPDEST PUSH1 0x0 PUSH1 0xC0 DUP3 ADD SWAP1 POP DUP2 DUP2 SUB PUSH1 0x0 DUP4 ADD MSTORE PUSH2 0xB62 DUP2 DUP10 PUSH2 0xAE5 JUMP JUMPDEST SWAP1 POP PUSH2 0xB71 PUSH1 0x20 DUP4 ADD DUP9 PUSH2 0xB1E JUMP JUMPDEST DUP2 DUP2 SUB PUSH1 0x40 DUP4 ADD MSTORE PUSH2 0xB83 DUP2 DUP8 PUSH2 0xAE5 JUMP JUMPDEST SWAP1 POP DUP2 DUP2 SUB PUSH1 0x60 DUP4 ADD MSTORE PUSH2 0xB97 DUP2 DUP7 PUSH2 0xAE5 JUMP JUMPDEST SWAP1 POP PUSH2 0xBA6 PUSH1 0x80 DUP4 ADD DUP6 PUSH2 0xB39 JUMP JUMPDEST PUSH2 0xBB3 PUSH1 0xA0 DUP4 ADD DUP5 PUSH2 0xB39 JUMP JUMPDEST SWAP8 SWAP7 POP POP POP POP POP POP POP JUMP JUMPDEST PUSH1 0x0 PUSH1 0x40 DUP3 ADD SWAP1 POP PUSH2 0xBD3 PUSH1 0x0 DUP4 ADD DUP6 PUSH2 0xB39 JUMP JUMPDEST DUP2 DUP2 SUB PUSH1 0x20 DUP4 ADD MSTORE PUSH2 0xBE5 DUP2 DUP5 PUSH2 0xAE5 JUMP JUMPDEST SWAP1 POP SWAP4 SWAP3 POP POP POP JUMP JUMPDEST PUSH1 0x0 DUP1 REVERT JUMPDEST PUSH1 0x0 DUP1 REVERT JUMPDEST PUSH32 0x4E487B7100000000000000000000000000000000000000000000000000000000 PUSH1 0x0 MSTORE PUSH1 0x41 PUSH1 0x4 MSTORE PUSH1 0x24 PUSH1 0x0 REVERT JUMPDEST PUSH2 0xC30 DUP3 PUSH2 0xAD4 JUMP JUMPDEST DUP2 ADD DUP2 DUP2 LT PUSH8 0xFFFFFFFFFFFFFFFF DUP3 GT OR ISZERO PUSH2 0xC4F JUMPI PUSH2 0xC4E PUSH2 0xBF8 JUMP JUMPDEST JUMPDEST DUP1 PUSH1 0x40 MSTORE POP POP POP JUMP JUMPDEST PUSH1 0x0 PUSH2 0xC62 PUSH2 0xA0E JUMP JUMPDEST SWAP1 POP PUSH2 0xC6E DUP3 DUP3 PUSH2 0xC27 JUMP JUMPDEST SWAP2 SWAP1 POP JUMP JUMPDEST PUSH1 0x0 PUSH8 0xFFFFFFFFFFFFFFFF DUP3 GT ISZERO PUSH2 0xC8E JUMPI PUSH2 0xC8D PUSH2 0xBF8 JUMP JUMPDEST JUMPDEST PUSH2 0xC97 DUP3 PUSH2 0xAD4 JUMP JUMPDEST SWAP1 POP PUSH1 0x20 DUP2 ADD SWAP1 POP SWAP2 SWAP1 POP JUMP JUMPDEST DUP3 DUP2 DUP4 CALLDATACOPY PUSH1 0x0 DUP4 DUP4 ADD MSTORE POP POP POP JUMP JUMPDEST PUSH1 0x0 PUSH2 0xCC6 PUSH2 0xCC1 DUP5 PUSH2 0xC73 JUMP JUMPDEST PUSH2 0xC58 JUMP JUMPDEST SWAP1 POP DUP3 DUP2 MSTORE PUSH1 0x20 DUP2 ADD DUP5 DUP5 DUP5 ADD GT ISZERO PUSH2 0xCE2 JUMPI PUSH2 0xCE1 PUSH2 0xBF3 JUMP JUMPDEST JUMPDEST PUSH2 0xCED DUP5 DUP3 DUP6 PUSH2 0xCA4 JUMP JUMPDEST POP SWAP4 SWAP3 POP POP POP JUMP JUMPDEST PUSH1 0x0 DUP3 PUSH1 0x1F DUP4 ADD SLT PUSH2 0xD0A JUMPI PUSH2 0xD09 PUSH2 0xBEE JUMP JUMPDEST JUMPDEST DUP2 CALLDATALOAD PUSH2 0xD1A DUP5 DUP3 PUSH1 0x20 DUP7 ADD PUSH2 0xCB3 JUMP JUMPDEST SWAP2 POP POP SWAP3 SWAP2 POP POP JUMP JUMPDEST PUSH1 0x0 DUP1 PUSH1 0x0 DUP1 PUSH1 0x80 DUP6 DUP8 SUB SLT ISZERO PUSH2 0xD3D JUMPI PUSH2 0xD3C PUSH2 0xA18 JUMP JUMPDEST JUMPDEST PUSH1 0x0 DUP6 ADD CALLDATALOAD PUSH8 0xFFFFFFFFFFFFFFFF DUP2 GT ISZERO PUSH2 0xD5B JUMPI PUSH2 0xD5A PUSH2 0xA1D JUMP JUMPDEST JUMPDEST PUSH2 0xD67 DUP8 DUP3 DUP9 ADD PUSH2 0xCF5 JUMP JUMPDEST SWAP5 POP POP PUSH1 0x20 DUP6 ADD CALLDATALOAD PUSH8 0xFFFFFFFFFFFFFFFF DUP2 GT ISZERO PUSH2 0xD88 JUMPI PUSH2 0xD87 PUSH2 0xA1D JUMP JUMPDEST JUMPDEST PUSH2 0xD94 DUP8 DUP3 DUP9 ADD PUSH2 0xCF5 JUMP JUMPDEST SWAP4 POP POP PUSH1 0x40 DUP6 ADD CALLDATALOAD PUSH8 0xFFFFFFFFFFFFFFFF DUP2 GT ISZERO PUSH2 0xDB5 JUMPI PUSH2 0xDB4 PUSH2 0xA1D JUMP JUMPDEST JUMPDEST PUSH2 0xDC1 DUP8 DUP3 DUP9 ADD PUSH2 0xCF5 JUMP JUMPDEST SWAP3 POP POP PUSH1 0x60 PUSH2 0xDD2 DUP8 DUP3 DUP9 ADD PUSH2 0xA43 JUMP JUMPDEST SWAP2 POP POP SWAP3 SWAP6 SWAP2 SWAP5 POP SWAP3 POP JUMP JUMPDEST PUSH1 0x0 PUSH1 0x20 DUP3 DUP5 SUB SLT ISZERO PUSH2 0xDF4 JUMPI PUSH2 0xDF3 PUSH2 0xA18 JUMP JUMPDEST JUMPDEST PUSH1 0x0 DUP3 ADD CALLDATALOAD PUSH8 0xFFFFFFFFFFFFFFFF DUP2 GT ISZERO PUSH2 0xE12 JUMPI PUSH2 0xE11 PUSH2 0xA1D JUMP JUMPDEST JUMPDEST PUSH2 0xE1E DUP5 DUP3 DUP6 ADD PUSH2 0xCF5 JUMP JUMPDEST SWAP2 POP POP SWAP3 SWAP2 POP POP JUMP JUMPDEST PUSH32 0x596F7520646964206E6F7420637265617465207468697320746F20646F206C69 PUSH1 0x0 DUP3 ADD MSTORE PUSH32 0x7374000000000000000000000000000000000000000000000000000000000000 PUSH1 0x20 DUP3 ADD MSTORE POP JUMP JUMPDEST PUSH1 0x0 PUSH2 0xE83 PUSH1 0x22 DUP4 PUSH2 0xA90 JUMP JUMPDEST SWAP2 POP PUSH2 0xE8E DUP3 PUSH2 0xE27 JUMP JUMPDEST PUSH1 0x40 DUP3 ADD SWAP1 POP SWAP2 SWAP1 POP JUMP JUMPDEST PUSH1 0x0 PUSH1 0x20 DUP3 ADD SWAP1 POP DUP2 DUP2 SUB PUSH1 0x0 DUP4 ADD MSTORE PUSH2 0xEB2 DUP2 PUSH2 0xE76 JUMP JUMPDEST SWAP1 POP SWAP2 SWAP1 POP JUMP JUMPDEST PUSH1 0x0 PUSH1 0x40 DUP3 ADD SWAP1 POP PUSH2 0xECE PUSH1 0x0 DUP4 ADD DUP6 PUSH2 0xB1E JUMP JUMPDEST PUSH2 0xEDB PUSH1 0x20 DUP4 ADD DUP5 PUSH2 0xB39 JUMP JUMPDEST SWAP4 SWAP3 POP POP POP JUMP JUMPDEST PUSH32 0x4E487B7100000000000000000000000000000000000000000000000000000000 PUSH1 0x0 MSTORE PUSH1 0x22 PUSH1 0x4 MSTORE PUSH1 0x24 PUSH1 0x0 REVERT JUMPDEST PUSH1 0x0 PUSH1 0x2 DUP3 DIV SWAP1 POP PUSH1 0x1 DUP3 AND DUP1 PUSH2 0xF29 JUMPI PUSH1 0x7F DUP3 AND SWAP2 POP JUMPDEST PUSH1 0x20 DUP3 LT DUP2 EQ ISZERO PUSH2 0xF3D JUMPI PUSH2 0xF3C PUSH2 0xEE2 JUMP JUMPDEST JUMPDEST POP SWAP2 SWAP1 POP JUMP JUMPDEST PUSH32 0x4E487B7100000000000000000000000000000000000000000000000000000000 PUSH1 0x0 MSTORE PUSH1 0x11 PUSH1 0x4 MSTORE PUSH1 0x24 PUSH1 0x0 REVERT JUMPDEST PUSH1 0x0 PUSH2 0xF7D DUP3 PUSH2 0xA22 JUMP JUMPDEST SWAP2 POP PUSH32 0xFFFFFFFFFFFFFFFFFFFFFFFFFFFFFFFFFFFFFFFFFFFFFFFFFFFFFFFFFFFFFFFF DUP3 EQ ISZERO PUSH2 0xFB0 JUMPI PUSH2 0xFAF PUSH2 0xF43 JUMP JUMPDEST JUMPDEST PUSH1 0x1 DUP3 ADD SWAP1 POP SWAP2 SWAP1 POP JUMP JUMPDEST PUSH1 0x0 PUSH1 0x60 DUP3 ADD SWAP1 POP DUP2 DUP2 SUB PUSH1 0x0 DUP4 ADD MSTORE PUSH2 0xFD5 DUP2 DUP7 PUSH2 0xAE5 JUMP JUMPDEST SWAP1 POP DUP2 DUP2 SUB PUSH1 0x20 DUP4 ADD MSTORE PUSH2 0xFE9 DUP2 DUP6 PUSH2 0xAE5 JUMP JUMPDEST SWAP1 POP PUSH2 0xFF8 PUSH1 0x40 DUP4 ADD DUP5 PUSH2 0xB39 JUMP JUMPDEST SWAP5 SWAP4 POP POP POP POP JUMP INVALID LOG2 PUSH5 0x6970667358 0x22 SLT KECCAK256 SLT 0x29 PUSH29 0x647CFAAB937AB26804770F58EAE3E05919C1F804A85D5343C6166E88EB PUSH5 0x736F6C6343 STOP ADDMOD 0xC STOP CALLER "},"gasEstimates":{"creation":{"codeDepositCost":"830000","executionCost":"infinite","totalCost":"infinite"},"external":{"CompleteTask(uint256)":"infinite","CreateList(string)":"infinite","CreateTask(string,string,string,uint256)":"infinite","DeletList(uint256)":"26947","DeleteTask(uint256)":"infinite","creator()":"2512","lists(uint256)":"infinite","tasks(uint256)":"infinite"}},"methodIdentifiers":{"CompleteTask(uint256)":"ae75aa69","CreateList(string)":"fcc4a510","CreateTask(string,string,string,uint256)":"a54c7bdc","DeletList(uint256)":"6ae17a3c","DeleteTask(uint256)":"8c2dccd1","creator()":"02d05d3f","lists(uint256)":"96102cf4","tasks(uint256)":"8d977672"}},"storageLayout":{"storage":[{"astId":76,"contract":"todo:ToDo","label":"creator","offset":0,"slot":"0","type":"t_address"},{"astId":81,"contract":"todo:ToDo","label":"lists","offset":0,"slot":"1","type":"t_mapping(t_uint256,t_struct(List)41_storage)"},{"astId":86,"contract":"todo:ToDo","label":"tasks","offset":0,"slot":"2","type":"t_mapping(t_uint256,t_struct(Task)54_storage)"},{"astId":88,"contract":"todo:ToDo","label":"numOfLists","offset":0,"slot":"3","type":"t_uint256"},{"astId":90,"contract":"todo:ToDo","label":"numOfTasks","offset":0,"slot":"4","type":"t_uint256"}],"types":{"t_address":{"encoding":"inplace","label":"address","numberOfBytes":"20"},"t_bool":{"encoding":"inplace","label":"bool","numberOfBytes":"1"},"t_mapping(t_uint256,t_struct(List)41_storage)":{"encoding":"mapping","key":"t_uint256","label":"mapping(uint256 => struct ToDo.List)","numberOfBytes":"32","value":"t_struct(List)41_storage"},"t_mapping(t_uint256,t_struct(Task)54_storage)":{"encoding":"mapping","key":"t_uint256","label":"mapping(uint256 => struct ToDo.Task)","numberOfBytes":"32","value":"t_struct(Task)54_storage"},"t_string_storage":{"encoding":"bytes","label":"string","numberOfBytes":"32"},"t_struct(List)41_storage":{"encoding":"inplace","label":"struct ToDo.List","members":[{"astId":38,"contract":"todo:ToDo","label":"active","offset":0,"slot":"0","type":"t_bool"},{"astId":40,"contract":"todo:ToDo","label":"name","offset":0,"slot":"1","type":"t_string_storage"}],"numberOfBytes":"64"},"t_struct(Task)54_storage":{"encoding":"inplace","label":"struct ToDo.Task","members":[{"astId":43,"contract":"todo:ToDo","label":"name","offset":0,"slot":"0","type":"t_string_storage"},{"astId":45,"contract":"todo:ToDo","label":"listId","offset":0,"slot":"1","type":"t_uint256"},{"astId":47,"contract":"todo:ToDo","label":"description","offset":0,"slot":"2","type":"t_string_storage"},{"astId":49,"contract":"todo:ToDo","label":"day","offset":0,"slot":"3","type":"t_string_storage"},{"astId":51,"contract":"todo:ToDo","label":"active","offset":0,"slot":"4","type":"t_bool"},{"astId":53,"contract":"todo:ToDo","label":"completed","offset":1,"slot":"4","type":"t_bool"}],"numberOfBytes":"160"},"t_uint256":{"encoding":"inplace","label":"uint256","numberOfBytes":"32"}}},"userdoc":{"kind":"user","methods":{},"version":1}}